{
  "contractName": "ETC",
  "abi": [
    {
      "inputs": [
        {
          "internalType": "contract LAND",
          "name": "_land",
          "type": "address"
        }
      ],
      "stateMutability": "nonpayable",
      "type": "constructor"
    },
    {
      "anonymous": false,
      "inputs": [
        {
          "indexed": true,
          "internalType": "address",
          "name": "owner",
          "type": "address"
        },
        {
          "indexed": true,
          "internalType": "address",
          "name": "spender",
          "type": "address"
        },
        {
          "indexed": false,
          "internalType": "uint256",
          "name": "value",
          "type": "uint256"
        }
      ],
      "name": "Approval",
      "type": "event"
    },
    {
      "anonymous": false,
      "inputs": [
        {
          "indexed": true,
          "internalType": "address",
          "name": "from",
          "type": "address"
        },
        {
          "indexed": true,
          "internalType": "address",
          "name": "to",
          "type": "address"
        },
        {
          "indexed": false,
          "internalType": "uint256",
          "name": "value",
          "type": "uint256"
        }
      ],
      "name": "Transfer",
      "type": "event"
    },
    {
      "inputs": [],
      "name": "TOTAL_SUPPLY",
      "outputs": [
        {
          "internalType": "uint256",
          "name": "",
          "type": "uint256"
        }
      ],
      "stateMutability": "view",
      "type": "function",
      "constant": true
    },
    {
      "inputs": [
        {
          "internalType": "address",
          "name": "owner",
          "type": "address"
        },
        {
          "internalType": "address",
          "name": "spender",
          "type": "address"
        }
      ],
      "name": "allowance",
      "outputs": [
        {
          "internalType": "uint256",
          "name": "",
          "type": "uint256"
        }
      ],
      "stateMutability": "view",
      "type": "function",
      "constant": true
    },
    {
      "inputs": [
        {
          "internalType": "address",
          "name": "spender",
          "type": "address"
        },
        {
          "internalType": "uint256",
          "name": "amount",
          "type": "uint256"
        }
      ],
      "name": "approve",
      "outputs": [
        {
          "internalType": "bool",
          "name": "",
          "type": "bool"
        }
      ],
      "stateMutability": "nonpayable",
      "type": "function"
    },
    {
      "inputs": [
        {
          "internalType": "address",
          "name": "account",
          "type": "address"
        }
      ],
      "name": "balanceOf",
      "outputs": [
        {
          "internalType": "uint256",
          "name": "",
          "type": "uint256"
        }
      ],
      "stateMutability": "view",
      "type": "function",
      "constant": true
    },
    {
      "inputs": [],
      "name": "decimals",
      "outputs": [
        {
          "internalType": "uint8",
          "name": "",
          "type": "uint8"
        }
      ],
      "stateMutability": "view",
      "type": "function",
      "constant": true
    },
    {
      "inputs": [
        {
          "internalType": "address",
          "name": "spender",
          "type": "address"
        },
        {
          "internalType": "uint256",
          "name": "subtractedValue",
          "type": "uint256"
        }
      ],
      "name": "decreaseAllowance",
      "outputs": [
        {
          "internalType": "bool",
          "name": "",
          "type": "bool"
        }
      ],
      "stateMutability": "nonpayable",
      "type": "function"
    },
    {
      "inputs": [
        {
          "internalType": "address",
          "name": "spender",
          "type": "address"
        },
        {
          "internalType": "uint256",
          "name": "addedValue",
          "type": "uint256"
        }
      ],
      "name": "increaseAllowance",
      "outputs": [
        {
          "internalType": "bool",
          "name": "",
          "type": "bool"
        }
      ],
      "stateMutability": "nonpayable",
      "type": "function"
    },
    {
      "inputs": [],
      "name": "name",
      "outputs": [
        {
          "internalType": "string",
          "name": "",
          "type": "string"
        }
      ],
      "stateMutability": "view",
      "type": "function",
      "constant": true
    },
    {
      "inputs": [],
      "name": "symbol",
      "outputs": [
        {
          "internalType": "string",
          "name": "",
          "type": "string"
        }
      ],
      "stateMutability": "view",
      "type": "function",
      "constant": true
    },
    {
      "inputs": [],
      "name": "totalSupply",
      "outputs": [
        {
          "internalType": "uint256",
          "name": "",
          "type": "uint256"
        }
      ],
      "stateMutability": "view",
      "type": "function",
      "constant": true
    },
    {
      "inputs": [
        {
          "internalType": "address",
          "name": "recipient",
          "type": "address"
        },
        {
          "internalType": "uint256",
          "name": "amount",
          "type": "uint256"
        }
      ],
      "name": "transfer",
      "outputs": [
        {
          "internalType": "bool",
          "name": "",
          "type": "bool"
        }
      ],
      "stateMutability": "nonpayable",
      "type": "function"
    },
    {
      "inputs": [
        {
          "internalType": "address",
          "name": "sender",
          "type": "address"
        },
        {
          "internalType": "address",
          "name": "recipient",
          "type": "address"
        },
        {
          "internalType": "uint256",
          "name": "amount",
          "type": "uint256"
        }
      ],
      "name": "transferFrom",
      "outputs": [
        {
          "internalType": "bool",
          "name": "",
          "type": "bool"
        }
      ],
      "stateMutability": "nonpayable",
      "type": "function"
    },
    {
      "inputs": [
        {
          "internalType": "address",
          "name": "addr",
          "type": "address"
        },
        {
          "internalType": "uint256",
          "name": "eType",
          "type": "uint256"
        }
      ],
      "name": "rewardData",
      "outputs": [
        {
          "internalType": "uint256[]",
          "name": "",
          "type": "uint256[]"
        }
      ],
      "stateMutability": "view",
      "type": "function",
      "constant": true
    },
    {
      "inputs": [
        {
          "internalType": "uint256",
          "name": "eType",
          "type": "uint256"
        }
      ],
      "name": "claimReward",
      "outputs": [],
      "stateMutability": "nonpayable",
      "type": "function"
    }
  ],
  "bytecode": "0x60806040526002600a556004600b553480156200001b57600080fd5b506040516200125e3803806200125e8339810160408190526200003e9162000238565b604080518082018252600781527f4d6574614554430000000000000000000000000000000000000000000000000060208083019182528351808501909452600484527f6d45544300000000000000000000000000000000000000000000000000000000908401528151919291620000b89160039162000192565b508051620000ce90600490602084019062000192565b505060068054600160a060020a031916600160a060020a039390931692909217909155506aae4975e31b43facf8000006005556009602052671158e460913d00007f6cde3cea4b3a3fb2488b2808bae7556f4a405e50f65e1794383bc026131b13c3556722b1c8c1227a00007fc575c31fea594a6eb97c8e9d3f9caee4c16218c6ef37e923234c0fe9014a61e7556004600052674563918244f400007f8dc18c4ccfd75f5c815b63770fa542fd953e8fef7e0e44bbdd4913470ce7e9cb55620002c0565b828054620001a0906200026a565b90600052602060002090601f016020900481019282620001c457600085556200020f565b82601f10620001df57805160ff19168380011785556200020f565b828001600101855582156200020f579182015b828111156200020f578251825591602001919060010190620001f2565b506200021d92915062000221565b5090565b5b808211156200021d576000815560010162000222565b6000602082840312156200024b57600080fd5b8151600160a060020a03811681146200026357600080fd5b9392505050565b6002810460018216806200027f57607f821691505b60208210811415620002ba577f4e487b7100000000000000000000000000000000000000000000000000000000600052602260045260246000fd5b50919050565b610f8e80620002d06000396000f3fe608060405234801561001057600080fd5b50600436106100bd5760e060020a600035046306fdde0381146100c2578063095ea7b3146100e057806318160ddd1461010357806323b872dd14610115578063313ce567146101285780633817486214610137578063395093511461015757806370a082311461016a578063902d55a51461019357806395d89b411461019c578063a457c2d7146101a4578063a9059cbb146101b7578063ae169a50146101ca578063dd62ed3e146101df575b600080fd5b6100ca610218565b6040516100d79190610cbc565b60405180910390f35b6100f36100ee366004610d2d565b6102aa565b60405190151581526020016100d7565b6002545b6040519081526020016100d7565b6100f3610123366004610d57565b6102c0565b604051601281526020016100d7565b61014a610145366004610d2d565b610375565b6040516100d79190610d93565b6100f3610165366004610d2d565b61057f565b610107610178366004610dd7565b600160a060020a031660009081526020819052604090205490565b61010760055481565b6100ca6105bb565b6100f36101b2366004610d2d565b6105ca565b6100f36101c5366004610d2d565b610669565b6101dd6101d8366004610df9565b610676565b005b6101076101ed366004610e12565b600160a060020a03918216600090815260016020908152604080832093909416825291909152205490565b60606003805461022790610e45565b80601f016020809104026020016040519081016040528092919081815260200182805461025390610e45565b80156102a05780601f10610275576101008083540402835291602001916102a0565b820191906000526020600020905b81548152906001019060200180831161028357829003601f168201915b5050505050905090565b60006102b73384846108ed565b50600192915050565b60006102cd848484610a1d565b600160a060020a03841660009081526001602090815260408083203384529091529020548281101561035d5760405160e560020a62461bcd02815260206004820152602860248201527f45524332303a207472616e7366657220616d6f756e7420657863656564732061604482015260c060020a676c6c6f77616e63650260648201526084015b60405180910390fd5b61036a85338584036108ed565b506001949350505050565b6060600a5482101561038657600080fd5b600b5482111561039557600080fd5b60065460405160e260020a63198f7891028152600091600160a060020a03169063663de244906103cb9087908790600401610e84565b602060405180830381865afa1580156103e8573d6000803e3d6000fd5b505050506040513d601f19601f8201168201806040525081019061040c9190610e9d565b6000848152600960205260409020546104259190610ed0565b600160a060020a0385166000908152600760209081526040808320878452909152902054909150620151809061045b9042610eef565b1015610465575060005b600654604051600160e460020a620182a502031981526201518091600160a060020a03169063ffe7d5b0906104a09088908890600401610e84565b602060405180830381865afa1580156104bd573d6000803e3d6000fd5b505050506040513d601f19601f820116820180604052508101906104e19190610e9d565b6104eb9042610eef565b10156104f5575060005b604080516002808252606082018352600092602083019080368337505050600160a060020a038616600090815260086020908152604080832088845290915281205482519293509183919061054c5761054c610f06565b602002602001018181525050818160018151811061056c5761056c610f06565b6020908102919091010152949350505050565b336000818152600160209081526040808320600160a060020a038716845290915281205490916102b79185906105b6908690610f20565b6108ed565b60606004805461022790610e45565b336000908152600160209081526040808320600160a060020a0386168452909152812054828110156106525760405160e560020a62461bcd02815260206004820152602560248201527f45524332303a2064656372656173656420616c6c6f77616e63652062656c6f77604482015260d860020a64207a65726f026064820152608401610354565b61065f33858584036108ed565b5060019392505050565b60006102b7338484610a1d565b600a5481101561068557600080fd5b600b5481111561069457600080fd5b33600090815260076020908152604080832084845290915290205462015180906106be9042610eef565b1161070e5760405160e560020a62461bcd02815260206004820181905260248201527f596f752063616e20636c61696d2072657761726473206f6e63652061206461796044820152606401610354565b600654604051600160e460020a620182a502031981526201518091600160a060020a03169063ffe7d5b0906107499033908690600401610e84565b602060405180830381865afa158015610766573d6000803e3d6000fd5b505050506040513d601f19601f8201168201806040525081019061078a9190610e9d565b6107949042610eef565b116108005760405160e560020a62461bcd02815260206004820152603060248201527f596f75206d757374207761697420323420686f757273206166746572206c61746044820152608160020a6f32b9ba1034b739ba30b63630ba34b7b7026064820152608401610354565b60065460405160e260020a63198f7891028152600091600160a060020a03169063663de244906108369033908690600401610e84565b602060405180830381865afa158015610853573d6000803e3d6000fd5b505050506040513d601f19601f820116820180604052508101906108779190610e9d565b6000838152600960205260409020546108909190610ed0565b905061089c3382610bec565b336000908152600860209081526040808320858452909152812080548392906108c6908490610f20565b90915550503360009081526007602090815260408083209483529390529190912042905550565b600160a060020a0383166109555760405160e560020a62461bcd028152602060048201526024808201527f45524332303a20617070726f76652066726f6d20746865207a65726f20616464604482015260e060020a6372657373026064820152608401610354565b600160a060020a0382166109bc5760405160e560020a62461bcd02815260206004820152602260248201527f45524332303a20617070726f766520746f20746865207a65726f206164647265604482015260f060020a617373026064820152608401610354565b600160a060020a0383811660008181526001602090815260408083209487168084529482529182902085905590518481527f8c5be1e5ebec7d5bd14f71427d1e84f3dd0314c0f7b2291e5b200ac8c7c3b925910160405180910390a3505050565b600160a060020a038316610a875760405160e560020a62461bcd02815260206004820152602560248201527f45524332303a207472616e736665722066726f6d20746865207a65726f206164604482015260d860020a646472657373026064820152608401610354565b600160a060020a038216610aef5760405160e560020a62461bcd02815260206004820152602360248201527f45524332303a207472616e7366657220746f20746865207a65726f2061646472604482015260e860020a62657373026064820152608401610354565b600160a060020a03831660009081526020819052604090205481811015610b6d5760405160e560020a62461bcd02815260206004820152602660248201527f45524332303a207472616e7366657220616d6f756e7420657863656564732062604482015260d060020a65616c616e6365026064820152608401610354565b600160a060020a03808516600090815260208190526040808220858503905591851681529081208054849290610ba4908490610f20565b9250508190555082600160a060020a031684600160a060020a0316600080516020610f3983398151915284604051610bde91815260200190565b60405180910390a350505050565b600160a060020a038216610c455760405160e560020a62461bcd02815260206004820152601f60248201527f45524332303a206d696e7420746f20746865207a65726f2061646472657373006044820152606401610354565b8060026000828254610c579190610f20565b9091555050600160a060020a03821660009081526020819052604081208054839290610c84908490610f20565b9091555050604051818152600160a060020a03831690600090600080516020610f398339815191529060200160405180910390a35050565b600060208083528351808285015260005b81811015610ce957858101830151858201604001528201610ccd565b81811115610cfb576000604083870101525b50601f01601f1916929092016040019392505050565b8035600160a060020a0381168114610d2857600080fd5b919050565b60008060408385031215610d4057600080fd5b610d4983610d11565b946020939093013593505050565b600080600060608486031215610d6c57600080fd5b610d7584610d11565b9250610d8360208501610d11565b9150604084013590509250925092565b6020808252825182820181905260009190848201906040850190845b81811015610dcb57835183529284019291840191600101610daf565b50909695505050505050565b600060208284031215610de957600080fd5b610df282610d11565b9392505050565b600060208284031215610e0b57600080fd5b5035919050565b60008060408385031215610e2557600080fd5b610e2e83610d11565b9150610e3c60208401610d11565b90509250929050565b600281046001821680610e5957607f821691505b60208210811415610e7e5760e060020a634e487b710260009081526022600452602490fd5b50919050565b600160a060020a03929092168252602082015260400190565b600060208284031215610eaf57600080fd5b5051919050565b60e060020a634e487b710260009081526011600452602490fd5b6000816000190483118215151615610eea57610eea610eb6565b500290565b600082821015610f0157610f01610eb6565b500390565b60e060020a634e487b710260009081526032600452602490fd5b60008219821115610f3357610f33610eb6565b50019056feddf252ad1be2c89b69c2b068fc378daa952ba7f163c4a11628f55a4df523b3efa2646970667358221220167e7d0a36296864e97c3ffe1e3981a5d2aa47ab0bcb1e8ad81d3589fda418c464736f6c634300080a0033",
  "immutableReferences": {},
  "source": "// SPDX-License-Identifier: MIT\npragma solidity ^0.8.0;\n\nimport \"@openzeppelin/contracts/token/ERC20/ERC20.sol\";\nimport \"./Land.sol\";\n\ncontract ETC is ERC20 {\n\tuint public TOTAL_SUPPLY;\n\tLAND private land;\n\n\tmapping(address => mapping(uint => uint)) private lastMint;\n\tmapping(address => mapping(uint => uint)) private claimedSoFar;\n\tmapping(uint => uint) private rewardAmt;\n\n\tuint private eStart = 2;\n\tuint private eEnd = 4;\n\n\tconstructor(LAND _land) ERC20(\"MetaETC\", \"mETC\") {\n\t\tland = _land;\n\t\tTOTAL_SUPPLY = 210700000 * 10 ** 18;\n\n\t\t// Daily Rewards\n\t\trewardAmt[2] = 1.25 ether;\n\t\trewardAmt[3] = 2.5 ether;\n\t\trewardAmt[4] = 5 ether;\n\t}\n\n\tfunction rewardData(address addr, uint eType) public view returns (uint[] memory) {\n\t\trequire(eType >= eStart);\n\t\trequire(eType <= eEnd);\n\n\t\tuint reward = rewardAmt[eType] * land.eqCount(addr, eType);\n\t\tif (block.timestamp - lastMint[addr][eType] < 1 days) reward = 0;\n\t\tif (block.timestamp - land.latestInstall(addr, eType) < 1 days) reward = 0;\n\n\t\tuint[] memory arr = new uint[](2);\n\t\tarr[0] = claimedSoFar[addr][eType];\n\t\tarr[1] = reward;\n\n\t\treturn arr;\n\t}\n\n\tfunction claimReward(uint eType) public {\n\t\trequire(eType >= eStart);\n\t\trequire(eType <= eEnd);\n\n\t\trequire(block.timestamp - lastMint[msg.sender][eType] > 1 days, \"You can claim rewards once a day\");\n\t\trequire(block.timestamp - land.latestInstall(msg.sender, eType) > 1 days, \"You must wait 24 hours after latest installation\");\n\n\t\tuint reward = rewardAmt[eType] * land.eqCount(msg.sender, eType);\n\t\t\n\t\t_mint(msg.sender, reward);\n\t\tclaimedSoFar[msg.sender][eType] += reward;\n\t\tlastMint[msg.sender][eType] = block.timestamp;\n\t}\n}",
  "sourcePath": "C:\\Users\\debuj\\Desktop\\projects\\game1\\contracts\\contracts\\ETC.sol",
  "compiler": {
    "name": "solc",
    "version": "0.8.10+commit.fc410830.Emscripten.clang"
  },
  "schemaVersion": "3.4.3",
  "updatedAt": "2022-02-17T16:23:39.529Z",
  "networkType": "ethereum",
  "devdoc": {
    "kind": "dev",
    "methods": {
      "allowance(address,address)": {
        "details": "See {IERC20-allowance}."
      },
      "approve(address,uint256)": {
        "details": "See {IERC20-approve}. Requirements: - `spender` cannot be the zero address."
      },
      "balanceOf(address)": {
        "details": "See {IERC20-balanceOf}."
      },
      "decimals()": {
        "details": "Returns the number of decimals used to get its user representation. For example, if `decimals` equals `2`, a balance of `505` tokens should be displayed to a user as `5.05` (`505 / 10 ** 2`). Tokens usually opt for a value of 18, imitating the relationship between Ether and Wei. This is the value {ERC20} uses, unless this function is overridden; NOTE: This information is only used for _display_ purposes: it in no way affects any of the arithmetic of the contract, including {IERC20-balanceOf} and {IERC20-transfer}."
      },
      "decreaseAllowance(address,uint256)": {
        "details": "Atomically decreases the allowance granted to `spender` by the caller. This is an alternative to {approve} that can be used as a mitigation for problems described in {IERC20-approve}. Emits an {Approval} event indicating the updated allowance. Requirements: - `spender` cannot be the zero address. - `spender` must have allowance for the caller of at least `subtractedValue`."
      },
      "increaseAllowance(address,uint256)": {
        "details": "Atomically increases the allowance granted to `spender` by the caller. This is an alternative to {approve} that can be used as a mitigation for problems described in {IERC20-approve}. Emits an {Approval} event indicating the updated allowance. Requirements: - `spender` cannot be the zero address."
      },
      "name()": {
        "details": "Returns the name of the token."
      },
      "symbol()": {
        "details": "Returns the symbol of the token, usually a shorter version of the name."
      },
      "totalSupply()": {
        "details": "See {IERC20-totalSupply}."
      },
      "transfer(address,uint256)": {
        "details": "See {IERC20-transfer}. Requirements: - `recipient` cannot be the zero address. - the caller must have a balance of at least `amount`."
      },
      "transferFrom(address,address,uint256)": {
        "details": "See {IERC20-transferFrom}. Emits an {Approval} event indicating the updated allowance. This is not required by the EIP. See the note at the beginning of {ERC20}. Requirements: - `sender` and `recipient` cannot be the zero address. - `sender` must have a balance of at least `amount`. - the caller must have allowance for ``sender``'s tokens of at least `amount`."
      }
    },
    "version": 1
  },
  "userdoc": {
    "kind": "user",
    "methods": {},
    "version": 1
  }
}