{
  "_format": "hh-sol-artifact-1",
  "contractName": "LAND",
  "sourceName": "contracts/LAND.sol",
  "abi": [
    {
      "inputs": [],
      "stateMutability": "nonpayable",
      "type": "constructor"
    },
    {
      "anonymous": false,
      "inputs": [
        {
          "indexed": true,
          "internalType": "address",
          "name": "owner",
          "type": "address"
        },
        {
          "indexed": true,
          "internalType": "address",
          "name": "approved",
          "type": "address"
        },
        {
          "indexed": true,
          "internalType": "uint256",
          "name": "tokenId",
          "type": "uint256"
        }
      ],
      "name": "Approval",
      "type": "event"
    },
    {
      "anonymous": false,
      "inputs": [
        {
          "indexed": true,
          "internalType": "address",
          "name": "owner",
          "type": "address"
        },
        {
          "indexed": true,
          "internalType": "address",
          "name": "operator",
          "type": "address"
        },
        {
          "indexed": false,
          "internalType": "bool",
          "name": "approved",
          "type": "bool"
        }
      ],
      "name": "ApprovalForAll",
      "type": "event"
    },
    {
      "anonymous": false,
      "inputs": [
        {
          "indexed": true,
          "internalType": "address",
          "name": "from",
          "type": "address"
        },
        {
          "indexed": true,
          "internalType": "address",
          "name": "to",
          "type": "address"
        },
        {
          "indexed": true,
          "internalType": "uint256",
          "name": "tokenId",
          "type": "uint256"
        }
      ],
      "name": "Transfer",
      "type": "event"
    },
    {
      "inputs": [
        {
          "internalType": "uint256",
          "name": "offerId",
          "type": "uint256"
        }
      ],
      "name": "acceptOffer",
      "outputs": [],
      "stateMutability": "nonpayable",
      "type": "function"
    },
    {
      "inputs": [
        {
          "internalType": "address",
          "name": "to",
          "type": "address"
        },
        {
          "internalType": "uint256",
          "name": "tokenId",
          "type": "uint256"
        }
      ],
      "name": "approve",
      "outputs": [],
      "stateMutability": "nonpayable",
      "type": "function"
    },
    {
      "inputs": [
        {
          "internalType": "address",
          "name": "owner",
          "type": "address"
        }
      ],
      "name": "balanceOf",
      "outputs": [
        {
          "internalType": "uint256",
          "name": "",
          "type": "uint256"
        }
      ],
      "stateMutability": "view",
      "type": "function"
    },
    {
      "inputs": [
        {
          "internalType": "uint256",
          "name": "offerId",
          "type": "uint256"
        }
      ],
      "name": "cancelOffer",
      "outputs": [],
      "stateMutability": "nonpayable",
      "type": "function"
    },
    {
      "inputs": [
        {
          "internalType": "address",
          "name": "",
          "type": "address"
        },
        {
          "internalType": "uint256",
          "name": "",
          "type": "uint256"
        }
      ],
      "name": "eqCount",
      "outputs": [
        {
          "internalType": "uint256",
          "name": "",
          "type": "uint256"
        }
      ],
      "stateMutability": "view",
      "type": "function"
    },
    {
      "inputs": [
        {
          "internalType": "uint256",
          "name": "tokenId",
          "type": "uint256"
        }
      ],
      "name": "getApproved",
      "outputs": [
        {
          "internalType": "address",
          "name": "",
          "type": "address"
        }
      ],
      "stateMutability": "view",
      "type": "function"
    },
    {
      "inputs": [
        {
          "internalType": "address",
          "name": "addr",
          "type": "address"
        }
      ],
      "name": "getMyLandStatuses",
      "outputs": [
        {
          "internalType": "uint256[]",
          "name": "",
          "type": "uint256[]"
        }
      ],
      "stateMutability": "view",
      "type": "function"
    },
    {
      "inputs": [
        {
          "internalType": "address",
          "name": "addr",
          "type": "address"
        }
      ],
      "name": "getMyLands",
      "outputs": [
        {
          "internalType": "uint256[]",
          "name": "",
          "type": "uint256[]"
        }
      ],
      "stateMutability": "view",
      "type": "function"
    },
    {
      "inputs": [
        {
          "internalType": "address",
          "name": "addr",
          "type": "address"
        },
        {
          "internalType": "uint256",
          "name": "oType",
          "type": "uint256"
        }
      ],
      "name": "getOffers",
      "outputs": [
        {
          "components": [
            {
              "internalType": "uint256",
              "name": "id",
              "type": "uint256"
            },
            {
              "internalType": "address",
              "name": "from",
              "type": "address"
            },
            {
              "internalType": "uint256",
              "name": "fromIndex",
              "type": "uint256"
            },
            {
              "internalType": "address",
              "name": "to",
              "type": "address"
            },
            {
              "internalType": "uint256",
              "name": "toIndex",
              "type": "uint256"
            },
            {
              "internalType": "uint256",
              "name": "tokenId",
              "type": "uint256"
            },
            {
              "internalType": "uint256",
              "name": "amt",
              "type": "uint256"
            }
          ],
          "internalType": "struct LAND.Offer[]",
          "name": "",
          "type": "tuple[]"
        }
      ],
      "stateMutability": "view",
      "type": "function"
    },
    {
      "inputs": [
        {
          "internalType": "uint256",
          "name": "start",
          "type": "uint256"
        },
        {
          "internalType": "uint256",
          "name": "end",
          "type": "uint256"
        }
      ],
      "name": "getStatus",
      "outputs": [
        {
          "internalType": "uint256[]",
          "name": "",
          "type": "uint256[]"
        }
      ],
      "stateMutability": "view",
      "type": "function"
    },
    {
      "inputs": [
        {
          "internalType": "address",
          "name": "owner",
          "type": "address"
        },
        {
          "internalType": "address",
          "name": "operator",
          "type": "address"
        }
      ],
      "name": "isApprovedForAll",
      "outputs": [
        {
          "internalType": "bool",
          "name": "",
          "type": "bool"
        }
      ],
      "stateMutability": "view",
      "type": "function"
    },
    {
      "inputs": [
        {
          "internalType": "address",
          "name": "",
          "type": "address"
        },
        {
          "internalType": "uint256",
          "name": "",
          "type": "uint256"
        }
      ],
      "name": "latestInstall",
      "outputs": [
        {
          "internalType": "uint256",
          "name": "",
          "type": "uint256"
        }
      ],
      "stateMutability": "view",
      "type": "function"
    },
    {
      "inputs": [
        {
          "internalType": "uint256",
          "name": "tokenId",
          "type": "uint256"
        }
      ],
      "name": "makeOffer",
      "outputs": [],
      "stateMutability": "payable",
      "type": "function"
    },
    {
      "inputs": [
        {
          "internalType": "uint256",
          "name": "tokenId",
          "type": "uint256"
        }
      ],
      "name": "mintLand",
      "outputs": [],
      "stateMutability": "payable",
      "type": "function"
    },
    {
      "inputs": [
        {
          "internalType": "uint256[]",
          "name": "tokenIds",
          "type": "uint256[]"
        }
      ],
      "name": "mintMultiple",
      "outputs": [],
      "stateMutability": "payable",
      "type": "function"
    },
    {
      "inputs": [],
      "name": "name",
      "outputs": [
        {
          "internalType": "string",
          "name": "",
          "type": "string"
        }
      ],
      "stateMutability": "view",
      "type": "function"
    },
    {
      "inputs": [
        {
          "internalType": "uint256",
          "name": "tokenId",
          "type": "uint256"
        }
      ],
      "name": "ownerOf",
      "outputs": [
        {
          "internalType": "address",
          "name": "",
          "type": "address"
        }
      ],
      "stateMutability": "view",
      "type": "function"
    },
    {
      "inputs": [
        {
          "internalType": "address",
          "name": "from",
          "type": "address"
        },
        {
          "internalType": "address",
          "name": "to",
          "type": "address"
        },
        {
          "internalType": "uint256",
          "name": "tokenId",
          "type": "uint256"
        }
      ],
      "name": "safeTransferFrom",
      "outputs": [],
      "stateMutability": "nonpayable",
      "type": "function"
    },
    {
      "inputs": [
        {
          "internalType": "address",
          "name": "from",
          "type": "address"
        },
        {
          "internalType": "address",
          "name": "to",
          "type": "address"
        },
        {
          "internalType": "uint256",
          "name": "tokenId",
          "type": "uint256"
        },
        {
          "internalType": "bytes",
          "name": "_data",
          "type": "bytes"
        }
      ],
      "name": "safeTransferFrom",
      "outputs": [],
      "stateMutability": "nonpayable",
      "type": "function"
    },
    {
      "inputs": [
        {
          "internalType": "address",
          "name": "operator",
          "type": "address"
        },
        {
          "internalType": "bool",
          "name": "approved",
          "type": "bool"
        }
      ],
      "name": "setApprovalForAll",
      "outputs": [],
      "stateMutability": "nonpayable",
      "type": "function"
    },
    {
      "inputs": [
        {
          "internalType": "bytes4",
          "name": "interfaceId",
          "type": "bytes4"
        }
      ],
      "name": "supportsInterface",
      "outputs": [
        {
          "internalType": "bool",
          "name": "",
          "type": "bool"
        }
      ],
      "stateMutability": "view",
      "type": "function"
    },
    {
      "inputs": [],
      "name": "symbol",
      "outputs": [
        {
          "internalType": "string",
          "name": "",
          "type": "string"
        }
      ],
      "stateMutability": "view",
      "type": "function"
    },
    {
      "inputs": [
        {
          "internalType": "uint256",
          "name": "tokenId",
          "type": "uint256"
        }
      ],
      "name": "tokenURI",
      "outputs": [
        {
          "internalType": "string",
          "name": "",
          "type": "string"
        }
      ],
      "stateMutability": "view",
      "type": "function"
    },
    {
      "inputs": [],
      "name": "totalSupply",
      "outputs": [
        {
          "internalType": "uint256",
          "name": "",
          "type": "uint256"
        }
      ],
      "stateMutability": "view",
      "type": "function"
    },
    {
      "inputs": [
        {
          "internalType": "address",
          "name": "from",
          "type": "address"
        },
        {
          "internalType": "address",
          "name": "to",
          "type": "address"
        },
        {
          "internalType": "uint256",
          "name": "tokenId",
          "type": "uint256"
        }
      ],
      "name": "transferFrom",
      "outputs": [],
      "stateMutability": "nonpayable",
      "type": "function"
    },
    {
      "inputs": [
        {
          "internalType": "uint256[]",
          "name": "tokenIds",
          "type": "uint256[]"
        },
        {
          "internalType": "uint256",
          "name": "newStatus",
          "type": "uint256"
        }
      ],
      "name": "updateMultiple",
      "outputs": [],
      "stateMutability": "payable",
      "type": "function"
    },
    {
      "inputs": [
        {
          "internalType": "uint256",
          "name": "tokenId",
          "type": "uint256"
        },
        {
          "internalType": "uint256",
          "name": "newStatus",
          "type": "uint256"
        }
      ],
      "name": "updateStatus",
      "outputs": [],
      "stateMutability": "payable",
      "type": "function"
    },
    {
      "inputs": [],
      "name": "withdraw",
      "outputs": [],
      "stateMutability": "nonpayable",
      "type": "function"
    }
  ],
  "bytecode": "0x6080604052620f7d9b6006553480156200001857600080fd5b5060408051808201825260088082526715195cdd1310539160c21b6020808401828152855180870190965292855284015281519192916200005c916000916200030b565b508051620000729060019060208401906200030b565b5050600a80546001600160a01b0319163317815562032c667f6d5257204ebe7d88fd91ae87941cb2dd9d8062b64ae5a2bd2d28ec40b9fbf6df556207dfbb7fb39221ace053465ec3453ce2b36430bd138b997ecea25c1043da0c366812b82855620f7d9b7fb7c774451310d1be4108bc180d1b52823cb0ee0274a6c0081bcaf94f115fb96d5567016345785d8a00007fec8156718a8372b1db44bb411437d0870f3e3790d4a08526d024ce1b0b668f6b556702c68af0bb1400007f92e85d02570a8092d09a6e3a57665bc3815a2699a4074001bf1ccabf660f5a3655670429d069189e00007f6cde3cea4b3a3fb2488b2808bae7556f4a405e50f65e1794383bc026131b13c3556008602052671b9de674df0700007f6add646517a5b0f6793cd5891b7937d28a5b2981a5d88ebc7cd776088fea90415567297e9d28866b00007f625b35f5e76f098dd7c3a05b10e2e5e78a4a01228d60c3b143426cdf36d264555567375f53dc2dcf00007f9321edea6e3be4df59a344b401fab4f888b556fda1f954244cff9204bad624b8556745400a8fd53300007f91238f30f286c9a1c6e901c4eda3b214c381c846e3dbe48df95c21488e8e1fdb55675320c1437c9700007f13acf3fc7bed94759963f076d5d3443d88732026bffc8253bdf4a6e65f21ecc55567610177f723fb00007f24cd397636bedc6cf9b490d0edd57c769c19b367fb7d5c2344ae1ddc7d21c14455676ee22eaacb5f00007fe4c2e8be66af8dd2d277000f4f830a10546f8b14e45cd850b875c98ba0f0d2cd55677cc2e55e72c300007f82c9e868e45873bb5a4f47c09e14a12f6a6314e13aabd611e4374762bb4e8b365560005250678aa39c121a2700007f586689db7536874b78a6eac0f58556a56a106985743f7c16a699b27bb02f88bd55620003ee565b8280546200031990620003b1565b90600052602060002090601f0160209004810192826200033d576000855562000388565b82601f106200035857805160ff191683800117855562000388565b8280016001018555821562000388579182015b82811115620003885782518255916020019190600101906200036b565b50620003969291506200039a565b5090565b5b808211156200039657600081556001016200039b565b600281046001821680620003c657607f821691505b60208210811415620003e857634e487b7160e01b600052602260045260246000fd5b50919050565b61343f80620003fe6000396000f3fe6080604052600436106101b75760003560e01c80639a2f6474116100ec578063d47f030d1161008a578063ea13d02a11610064578063ea13d02a146104a8578063ea98a950146104bb578063ef706adf146104e8578063ffe7d5b014610508576101b7565b8063d47f030d14610462578063e2f3182914610475578063e985e9c514610488576101b7565b8063a745da65116100c6578063a745da65146103e2578063b88d4fde14610402578063c815729d14610422578063c87b56dd14610442576101b7565b80639a2f64741461038f578063a22cb465146103a2578063a6a6ab6c146103c2576101b7565b806342842e0e11610159578063663de24411610133578063663de2441461032757806370a0823114610347578063728239f91461036757806395d89b411461037a576101b7565b806342842e0e146102ba5780634c769b34146102da5780636352211e14610307576101b7565b8063095ea7b311610195578063095ea7b31461024157806318160ddd1461026357806323b872dd146102855780633ccfd60b146102a5576101b7565b806301ffc9a7146101bc57806306fdde03146101f2578063081812fc14610214575b600080fd5b3480156101c857600080fd5b506101dc6101d7366004612b80565b610528565b6040516101e99190612d71565b60405180910390f35b3480156101fe57600080fd5b50610207610570565b6040516101e99190612d7c565b34801561022057600080fd5b5061023461022f366004612bb8565b610602565b6040516101e99190612c4c565b34801561024d57600080fd5b5061026161025c366004612ae1565b61064e565b005b34801561026f57600080fd5b506102786106e6565b6040516101e99190613268565b34801561029157600080fd5b506102616102a03660046129b4565b6106ec565b3480156102b157600080fd5b50610261610724565b3480156102c657600080fd5b506102616102d53660046129b4565b610799565b3480156102e657600080fd5b506102fa6102f5366004612968565b6107b4565b6040516101e99190612d2d565b34801561031357600080fd5b50610234610322366004612bb8565b610820565b34801561033357600080fd5b50610278610342366004612ae1565b610855565b34801561035357600080fd5b50610278610362366004612968565b610872565b610261610375366004612bb8565b6108b6565b34801561038657600080fd5b506102076109b8565b61026161039d366004612bb8565b6109c7565b3480156103ae57600080fd5b506102616103bd366004612aa7565b610d3f565b3480156103ce57600080fd5b506102fa6103dd366004612968565b610d55565b3480156103ee57600080fd5b506102fa6103fd366004612bd0565b610dbf565b34801561040e57600080fd5b5061026161041d3660046129ef565b610eb9565b34801561042e57600080fd5b5061026161043d366004612bb8565b610ef8565b34801561044e57600080fd5b5061020761045d366004612bb8565b6111b6565b610261610470366004612b0a565b611239565b610261610483366004612bd0565b61153d565b34801561049457600080fd5b506101dc6104a3366004612982565b611745565b6102616104b6366004612b3d565b611773565b3480156104c757600080fd5b506104db6104d6366004612ae1565b611b94565b6040516101e99190612c9d565b3480156104f457600080fd5b50610261610503366004612bb8565b611d09565b34801561051457600080fd5b50610278610523366004612ae1565b611f43565b60006001600160e01b031982166380ac58cd60e01b148061055957506001600160e01b03198216635b5e139f60e01b145b80610568575061056882611f60565b90505b919050565b60606000805461057f90613347565b80601f01602080910402602001604051908101604052809291908181526020018280546105ab90613347565b80156105f85780601f106105cd576101008083540402835291602001916105f8565b820191906000526020600020905b8154815290600101906020018083116105db57829003601f168201915b5050505050905090565b600061060d82611f79565b6106325760405162461bcd60e51b815260040161062990613114565b60405180910390fd5b506000908152600460205260409020546001600160a01b031690565b600061065982610820565b9050806001600160a01b0316836001600160a01b0316141561068d5760405162461bcd60e51b8152600401610629906131d6565b806001600160a01b031661069f611f96565b6001600160a01b031614806106bb57506106bb816104a3611f96565b6106d75760405162461bcd60e51b815260040161062990612fc5565b6106e18383611f9a565b505050565b60065490565b6106fd6106f7611f96565b82612008565b6107195760405162461bcd60e51b815260040161062990613217565b6106e183838361208d565b600a546001600160a01b0316331461074e5760405162461bcd60e51b815260040161062990612f52565b600a546012546001600160a01b03909116906108fc9061076e90476132ed565b6040518115909202916000818181858888f19350505050158015610796573d6000803e3d6000fd5b50565b6106e183838360405180602001604052806000815250610eb9565b6001600160a01b0381166000908152600e602090815260409182902080548351818402810184019094528084526060939283018282801561081457602002820191906000526020600020905b815481526020019060010190808311610800575b50505050509050919050565b6000818152600260205260408120546001600160a01b0316806105685760405162461bcd60e51b815260040161062990613096565b601160209081526000928352604080842090915290825290205481565b60006001600160a01b03821661089a5760405162461bcd60e51b81526004016106299061304c565b506001600160a01b031660009081526003602052604090205490565b60006108c1826121c0565b60008181526009602052604090205490915034146108f15760405162461bcd60e51b815260040161062990612e89565b600082116109115760405162461bcd60e51b815260040161062990613022565b6006548211156109335760405162461bcd60e51b815260040161062990613022565b61093d338361223c565b506000818152600b6020908152604080832060019081905533808552600e8452828520805480840182558187528587200183905581865254600f8552838620878752855283862055808552600c845282852080549283018155808652848620909201869055845254600d835281842094845293909152902055565b60606001805461057f90613347565b600034116109e75760405162461bcd60e51b815260040161062990613160565b6109f081610820565b6001600160a01b0316336001600160a01b03161415610a0e57600080fd5b60006040518060e001604052806013805490506001610a2d91906132a2565b815233602080830182905260009182526014905260409081902054910190610a569060016132a2565b8152602001610a6484610820565b6001600160a01b0316815260200160156000610a7f86610820565b6001600160a01b03168152602081019190915260400160002054610aa49060016132a2565b81526020808201859052346040928301526013805460018082018355600092835285517f66de8ffda797e3de9c05e8fc57b3bf0ec28a930d40b0d285d93c06501cf6a09060079384029081019190915586850180517f66de8ffda797e3de9c05e8fc57b3bf0ec28a930d40b0d285d93c06501cf6a091830180546001600160a01b03199081166001600160a01b039384161790915589890180517f66de8ffda797e3de9c05e8fc57b3bf0ec28a930d40b0d285d93c06501cf6a09286015560608b0180517f66de8ffda797e3de9c05e8fc57b3bf0ec28a930d40b0d285d93c06501cf6a09387018054851691861691909117905560808c0180517f66de8ffda797e3de9c05e8fc57b3bf0ec28a930d40b0d285d93c06501cf6a09488015560a08d0180517f66de8ffda797e3de9c05e8fc57b3bf0ec28a930d40b0d285d93c06501cf6a09589015560c08e0180517f66de8ffda797e3de9c05e8fc57b3bf0ec28a930d40b0d285d93c06501cf6a09690990198909855338b5260148c529b8a208054808a018255908b529a8a208d519b909902909801998a559351958901805483169684169690961790955593516002880155905160038701805490941691161790915590516004840155925160058301559151600690910155909150601590610c8d84610820565b6001600160a01b0390811682526020808301939093526040918201600090812080546001818101835591835285832087516007909202019081559486015190850180549184166001600160a01b031992831617905592850151600285015560608501516003850180549190931693169290921790556080830151600483015560a0830151600583015560c083015160069092019190915560128054349290610d369084906132a2565b90915550505050565b610d51610d4a611f96565b8383612323565b5050565b6001600160a01b0381166000908152600c602090815260409182902080548351818402810184019094528084526060939283018282801561081457602002820191906000526020600020908154815260200190600101908083116108005750505050509050919050565b606082821015610dce57600080fd5b600654821115610ddd57600080fd5b6000610de984846132ed565b610df49060016132a2565b67ffffffffffffffff811115610e1a57634e487b7160e01b600052604160045260246000fd5b604051908082528060200260200182016040528015610e43578160200160208202803683370190505b5090506000845b848111610ead576000818152600b60205260409020548351849084908110610e8257634e487b7160e01b600052603260045260246000fd5b602090810291909101015281610e9781613382565b9250508080610ea590613382565b915050610e4a565b50909150505b92915050565b610eca610ec4611f96565b83612008565b610ee65760405162461bcd60e51b815260040161062990613217565b610ef2848484846123c6565b50505050565b60006013610f076001846132ed565b81548110610f2557634e487b7160e01b600052603260045260246000fd5b60009182526020918290206040805160e08101825260079093029091018054835260018101546001600160a01b039081169484019490945260028101549183019190915260038101549092166060820181905260048301546080830152600583015460a083015260069092015460c082015291503314610fa457600080fd5b610fb73382602001518360a00151610799565b80606001516001600160a01b03166108fc8260c001519081150290604051600060405180830381858888f19350505050158015610ff8573d6000803e3d6000fd5b508060c001516012600082825461100f91906132ed565b90915550601390506110226001846132ed565b8154811061104057634e487b7160e01b600052603260045260246000fd5b600091825260208083206007909202909101828155600180820180546001600160a01b031990811690915560028301859055600383018054909116905560048201849055600582018490556006909101839055838201516001600160a01b031683526014909152604091829020918301516110bb91906132ed565b815481106110d957634e487b7160e01b600052603260045260246000fd5b600091825260208083206007909202909101828155600180820180546001600160a01b0319908116909155600283018590556003830180549091169055600482018490556005820184905560069091018390553383526015909152604090912060808301519091611149916132ed565b8154811061116757634e487b7160e01b600052603260045260246000fd5b6000918252602082206007909102018181556001810180546001600160a01b03199081169091556002820183905560038201805490911690556004810182905560058101829055600601555050565b60606111c182611f79565b6111dd5760405162461bcd60e51b815260040161062990613187565b60006111e76123f9565b905060008151116112075760405180602001604052806000815250611232565b806112118461240b565b604051602001611222929190612c1d565b6040516020818303038152906040525b9392505050565b8051806112585760405162461bcd60e51b815260040161062990612eb1565b600061128b8360008151811061127e57634e487b7160e01b600052603260045260246000fd5b60200260200101516121c0565b6000818152600960205260409020549091506112a89083906132ce565b34146112c65760405162461bcd60e51b815260040161062990612e89565b60005b8351811015610ef25760008482815181106112f457634e487b7160e01b600052603260045260246000fd5b6020026020010151116113195760405162461bcd60e51b815260040161062990613022565b60065484828151811061133c57634e487b7160e01b600052603260045260246000fd5b602002602001015111156113625760405162461bcd60e51b815260040161062990613022565b61138584828151811061127e57634e487b7160e01b600052603260045260246000fd5b821461139057600080fd5b6113c1338583815181106113b457634e487b7160e01b600052603260045260246000fd5b602002602001015161223c565b6001600b60008684815181106113e757634e487b7160e01b600052603260045260246000fd5b602090810291909101810151825281810192909252604090810160009081209390935533808452600e83528184208054600181810183558287528587209091015590845254600f909252822086519192909187908590811061145957634e487b7160e01b600052603260045260246000fd5b6020026020010151815260200190815260200160002081905550600c6000336001600160a01b03166001600160a01b031681526020019081526020016000208482815181106114b857634e487b7160e01b600052603260045260246000fd5b602090810291909101810151825460018101845560009384528284200155338252600c8152604080832054600d909252822086519192909187908590811061151057634e487b7160e01b600052603260045260246000fd5b6020026020010151815260200190815260200160002081905550808061153590613382565b9150506112c9565b600281101561154b57600080fd5b600a81111561155957600080fd5b600081815260086020526040902054341461157357600080fd5b3361157d83610820565b6001600160a01b03161461159057600080fd5b6000828152600b60205260409020548114156115ab57600080fd5b6207dfbb821180156115be575080600214155b80156115cb575080600514155b80156115d8575080600814155b156115f55760405162461bcd60e51b815260040161062990612d8f565b62032c668211801561160a57506207dfbb8211155b801561162b575080600414806116205750806007145b8061162b575080600a145b156116485760405162461bcd60e51b815260040161062990612d8f565b336000908152600e60209081526040808320600f83528184208685529092529091205482919061167a906001906132ed565b8154811061169857634e487b7160e01b600052603260045260246000fd5b60009182526020808320909101929092553381526010825260408082208483528352808220429055848252600b90925220546001101561170857336000908152601160209081526040808320858452600b8352818420548452909152812080549161170283613330565b91905055505b336000908152601160209081526040808320848452909152812080549161172e83613382565b90915550506000918252600b602052604090912055565b6001600160a01b03918216600090815260056020908152604080832093909416825291909152205460ff1690565b8151806117925760405162461bcd60e51b815260040161062990612eb1565b60028210156117a057600080fd5b600a8211156117ae57600080fd5b6000828152600860205260409020546117c89082906132ce565b34146117e65760405162461bcd60e51b815260040161062990612e89565b600061180c8460008151811061127e57634e487b7160e01b600052603260045260246000fd5b90508015801561181d575082600214155b801561182a575082600514155b8015611837575082600814155b156118545760405162461bcd60e51b815260040161062990612d8f565b8060011480156118795750826004148061186e5750826007145b80611879575082600a145b156118965760405162461bcd60e51b815260040161062990612d8f565b60005b8451811015611b8d57336001600160a01b03166118dc8683815181106118cf57634e487b7160e01b600052603260045260246000fd5b6020026020010151610820565b6001600160a01b0316146118ef57600080fd5b600085828151811061191157634e487b7160e01b600052603260045260246000fd5b6020026020010151116119365760405162461bcd60e51b815260040161062990613022565b60065485828151811061195957634e487b7160e01b600052603260045260246000fd5b6020026020010151111561197f5760405162461bcd60e51b815260040161062990613022565b6119a285828151811061127e57634e487b7160e01b600052603260045260246000fd5b82146119ad57600080fd5b336000908152600e60209081526040808320600f909252822087518793600192918a90879081106119ee57634e487b7160e01b600052603260045260246000fd5b6020026020010151815260200190815260200160002054611a0f91906132ed565b81548110611a2d57634e487b7160e01b600052603260045260246000fd5b60009182526020808320909101929092553381526010825260408082208783529092529081204290558551600191600b91889085908110611a7e57634e487b7160e01b600052603260045260246000fd5b60200260200101518152602001908152602001600020541115611b10573360009081526011602052604081208651909190600b908290899086908110611ad457634e487b7160e01b600052603260045260246000fd5b602002602001015181526020019081526020016000205481526020019081526020016000206000815480929190611b0a90613330565b91905055505b3360009081526011602090815260408083208784529091528120805491611b3683613382565b919050555083600b6000878481518110611b6057634e487b7160e01b600052603260045260246000fd5b60200260200101518152602001908152602001600020819055508080611b8590613382565b915050611899565b5050505050565b606081611c59576001600160a01b038316600090815260146020908152604080832080548251818502810185019093528083529193909284015b82821015611c4e5760008481526020908190206040805160e08101825260078602909201805483526001808201546001600160a01b03908116858701526002830154938501939093526003820154909216606084015260048101546080840152600581015460a08401526006015460c08301529083529092019101611bce565b505050509050610eb3565b6001600160a01b038316600090815260156020908152604080832080548251818502810185019093528083529193909284018215611c4e5760008481526020908190206040805160e08101825260078602909201805483526001808201546001600160a01b03908116858701526002830154938501939093526003820154909216606084015260048101546080840152600581015460a08401526006015460c08301529083529092019101611bce565b60006013611d186001846132ed565b81548110611d3657634e487b7160e01b600052603260045260246000fd5b60009182526020918290206040805160e08101825260079093029091018054835260018101546001600160a01b039081169484018590526002820154928401929092526003810154909116606083015260048101546080830152600581015460a08301526006015460c082015291503314611db057600080fd5b80602001516001600160a01b03166108fc8260c001519081150290604051600060405180830381858888f19350505050158015611df1573d6000803e3d6000fd5b508060c0015160126000828254611e0891906132ed565b9091555060139050611e1b6001846132ed565b81548110611e3957634e487b7160e01b600052603260045260246000fd5b600091825260208083206007909202909101828155600180820180546001600160a01b031990811690915560028301859055600383018054909116905560048201849055600582018490556006909101839055338352601490915260409182902091830151611ea891906132ed565b81548110611ec657634e487b7160e01b600052603260045260246000fd5b600091825260208083206007909202909101828155600180820180546001600160a01b03199081169091556002830185905560038301805490911690556004820184905560058201849055600690910183905560608401516001600160a01b031683526015909152604090912060808301519091611149916132ed565b601060209081526000928352604080842090915290825290205481565b6001600160e01b031981166301ffc9a760e01b14919050565b6000908152600260205260409020546001600160a01b0316151590565b3390565b600081815260046020526040902080546001600160a01b0319166001600160a01b0384169081179091558190611fcf82610820565b6001600160a01b03167f8c5be1e5ebec7d5bd14f71427d1e84f3dd0314c0f7b2291e5b200ac8c7c3b92560405160405180910390a45050565b600061201382611f79565b61202f5760405162461bcd60e51b815260040161062990612f79565b600061203a83610820565b9050806001600160a01b0316846001600160a01b031614806120755750836001600160a01b031661206a84610602565b6001600160a01b0316145b8061208557506120858185611745565b949350505050565b826001600160a01b03166120a082610820565b6001600160a01b0316146120c65760405162461bcd60e51b815260040161062990612e0d565b6001600160a01b0382166120ec5760405162461bcd60e51b815260040161062990612ed7565b6120f7838383612526565b612102600082611f9a565b6001600160a01b038316600090815260036020526040812080546001929061212b9084906132ed565b90915550506001600160a01b03821660009081526003602052604081208054600192906121599084906132a2565b909155505060008181526002602052604080822080546001600160a01b0319166001600160a01b0386811691821790925591518493918716917fddf252ad1be2c89b69c2b068fc378daa952ba7f163c4a11628f55a4df523b3ef91a46106e18383836106e1565b600080805260076020527f6d5257204ebe7d88fd91ae87941cb2dd9d8062b64ae5a2bd2d28ec40b9fbf6df5482116121fa5750600261056b565b600160005260076020527fb39221ace053465ec3453ce2b36430bd138b997ecea25c1043da0c366812b8285482116122345750600161056b565b506000919050565b6001600160a01b0382166122625760405162461bcd60e51b8152600401610629906130df565b61226b81611f79565b156122885760405162461bcd60e51b815260040161062990612e52565b61229460008383612526565b6001600160a01b03821660009081526003602052604081208054600192906122bd9084906132a2565b909155505060008181526002602052604080822080546001600160a01b0319166001600160a01b03861690811790915590518392907fddf252ad1be2c89b69c2b068fc378daa952ba7f163c4a11628f55a4df523b3ef908290a4610d51600083836106e1565b816001600160a01b0316836001600160a01b031614156123555760405162461bcd60e51b815260040161062990612f1b565b6001600160a01b0383811660008181526005602090815260408083209487168084529490915290819020805460ff1916851515179055517f17307eab39ab6107e8899845ad3d59bd9653f200f220920489ca2b5937696c31906123b9908590612d71565b60405180910390a3505050565b6123d184848461208d565b6123dd848484846127a5565b610ef25760405162461bcd60e51b815260040161062990612dbb565b60408051602081019091526000815290565b60608161243057506040805180820190915260018152600360fc1b602082015261056b565b8160005b811561245a578061244481613382565b91506124539050600a836132ba565b9150612434565b60008167ffffffffffffffff81111561248357634e487b7160e01b600052604160045260246000fd5b6040519080825280601f01601f1916602001820160405280156124ad576020820181803683370190505b5090505b8415612085576124c26001836132ed565b91506124cf600a8661339d565b6124da9060306132a2565b60f81b8183815181106124fd57634e487b7160e01b600052603260045260246000fd5b60200101906001600160f81b031916908160001a90535061251f600a866132ba565b94506124b1565b816001600160a01b0316836001600160a01b0316141561254557600080fd5b6000818152600b6020526040902054156106e1576001600160a01b0383166000908152600c60209081526040808320600d835281842085855290925290912054612591906001906132ed565b815481106125af57634e487b7160e01b600052603260045260246000fd5b600091825260208083209091018290556001600160a01b038516808352600d825260408084208585528352808420849055908352600e8252808320600f835281842085855290925290912054612607906001906132ed565b8154811061262557634e487b7160e01b600052603260045260246000fd5b600091825260208083209091018290556001600160a01b0385168252600f815260408083208484528252808320839055600b909152902054600110156126a4576001600160a01b0383166000908152601160209081526040808320848452600b8352818420548452909152812080549161269e83613330565b91905055505b6001600160a01b0382166000818152600c602090815260408083208054600181810183558286528486209091018790558585529054600d8452828520878652845282852055848452600e8352818420868552600b80855283862080548354808601855584895287892001559686529054600f855283862088875285529290942091909155919052905411156106e1576001600160a01b0382166000908152601160209081526040808320848452600b8352818420548452909152812080549161276c83613382565b90915550506001600160a01b03919091166000908152601060209081526040808320938352600b82528083205483529290522042905550565b60006127b9846001600160a01b03166128c0565b156128b557836001600160a01b031663150b7a026127d5611f96565b8786866040518563ffffffff1660e01b81526004016127f79493929190612c60565b602060405180830381600087803b15801561281157600080fd5b505af1925050508015612841575060408051601f3d908101601f1916820190925261283e91810190612b9c565b60015b61289b573d80801561286f576040519150601f19603f3d011682016040523d82523d6000602084013e612874565b606091505b5080516128935760405162461bcd60e51b815260040161062990612dbb565b805181602001fd5b6001600160e01b031916630a85bd0160e11b149050612085565b506001949350505050565b6001600160a01b03163b151590565b80356001600160a01b038116811461056b57600080fd5b600082601f8301126128f6578081fd5b8135602067ffffffffffffffff821115612912576129126133dd565b808202612920828201613271565b83815282810190868401838801850189101561293a578687fd5b8693505b8584101561295c57803583526001939093019291840191840161293e565b50979650505050505050565b600060208284031215612979578081fd5b611232826128cf565b60008060408385031215612994578081fd5b61299d836128cf565b91506129ab602084016128cf565b90509250929050565b6000806000606084860312156129c8578081fd5b6129d1846128cf565b92506129df602085016128cf565b9150604084013590509250925092565b60008060008060808587031215612a04578081fd5b612a0d856128cf565b93506020612a1c8187016128cf565b935060408601359250606086013567ffffffffffffffff80821115612a3f578384fd5b818801915088601f830112612a52578384fd5b813581811115612a6457612a646133dd565b612a76601f8201601f19168501613271565b91508082528984828501011115612a8b578485fd5b8084840185840137810190920192909252939692955090935050565b60008060408385031215612ab9578182fd5b612ac2836128cf565b915060208301358015158114612ad6578182fd5b809150509250929050565b60008060408385031215612af3578182fd5b612afc836128cf565b946020939093013593505050565b600060208284031215612b1b578081fd5b813567ffffffffffffffff811115612b31578182fd5b612085848285016128e6565b60008060408385031215612b4f578182fd5b823567ffffffffffffffff811115612b65578283fd5b612b71858286016128e6565b95602094909401359450505050565b600060208284031215612b91578081fd5b8135611232816133f3565b600060208284031215612bad578081fd5b8151611232816133f3565b600060208284031215612bc9578081fd5b5035919050565b60008060408385031215612be2578182fd5b50508035926020909101359150565b60008151808452612c09816020860160208601613304565b601f01601f19169290920160200192915050565b60008351612c2f818460208801613304565b835190830190612c43818360208801613304565b01949350505050565b6001600160a01b0391909116815260200190565b6001600160a01b0385811682528416602082015260408101839052608060608201819052600090612c9390830184612bf1565b9695505050505050565b602080825282518282018190526000919060409081850190868401855b82811015612d2057815180518552868101516001600160a01b03908116888701528682015187870152606080830151909116908601526080808201519086015260a0808201519086015260c0908101519085015260e09093019290850190600101612cba565b5091979650505050505050565b6020808252825182820181905260009190848201906040850190845b81811015612d6557835183529284019291840191600101612d49565b50909695505050505050565b901515815260200190565b6000602082526112326020830184612bf1565b60208082526012908201527124b731b7b6b830ba34b136329026b4b732b960711b604082015260600190565b60208082526032908201527f4552433732313a207472616e7366657220746f206e6f6e20455243373231526560408201527131b2b4bb32b91034b6b83632b6b2b73a32b960711b606082015260800190565b60208082526025908201527f4552433732313a207472616e736665722066726f6d20696e636f72726563742060408201526437bbb732b960d91b606082015260800190565b6020808252601c908201527f4552433732313a20746f6b656e20616c7265616479206d696e74656400000000604082015260600190565b6020808252600e908201526d125b9d985b1a5908105b5bdd5b9d60921b604082015260600190565b6020808252600c908201526b27379029b2b632b1ba34b7b760a11b604082015260600190565b60208082526024908201527f4552433732313a207472616e7366657220746f20746865207a65726f206164646040820152637265737360e01b606082015260800190565b60208082526019908201527f4552433732313a20617070726f766520746f2063616c6c657200000000000000604082015260600190565b6020808252600d908201526c1058d8d95cdcc811195b9a5959609a1b604082015260600190565b6020808252602c908201527f4552433732313a206f70657261746f7220717565727920666f72206e6f6e657860408201526b34b9ba32b73a103a37b5b2b760a11b606082015260800190565b60208082526038908201527f4552433732313a20617070726f76652063616c6c6572206973206e6f74206f7760408201527f6e6572206e6f7220617070726f76656420666f7220616c6c0000000000000000606082015260800190565b60208082526010908201526f125b9d985b1a5908151bdad95b88125960821b604082015260600190565b6020808252602a908201527f4552433732313a2062616c616e636520717565727920666f7220746865207a65604082015269726f206164647265737360b01b606082015260800190565b60208082526029908201527f4552433732313a206f776e657220717565727920666f72206e6f6e657869737460408201526832b73a103a37b5b2b760b91b606082015260800190565b6020808252818101527f4552433732313a206d696e7420746f20746865207a65726f2061646472657373604082015260600190565b6020808252602c908201527f4552433732313a20617070726f76656420717565727920666f72206e6f6e657860408201526b34b9ba32b73a103a37b5b2b760a11b606082015260800190565b6020808252600d908201526c496e76616c69642056616c756560981b604082015260600190565b6020808252602f908201527f4552433732314d657461646174613a2055524920717565727920666f72206e6f60408201526e3732bc34b9ba32b73a103a37b5b2b760891b606082015260800190565b60208082526021908201527f4552433732313a20617070726f76616c20746f2063757272656e74206f776e656040820152603960f91b606082015260800190565b60208082526031908201527f4552433732313a207472616e736665722063616c6c6572206973206e6f74206f6040820152701ddb995c881b9bdc88185c1c1c9bdd9959607a1b606082015260800190565b90815260200190565b604051601f8201601f1916810167ffffffffffffffff8111828210171561329a5761329a6133dd565b604052919050565b600082198211156132b5576132b56133b1565b500190565b6000826132c9576132c96133c7565b500490565b60008160001904831182151516156132e8576132e86133b1565b500290565b6000828210156132ff576132ff6133b1565b500390565b60005b8381101561331f578181015183820152602001613307565b83811115610ef25750506000910152565b60008161333f5761333f6133b1565b506000190190565b60028104600182168061335b57607f821691505b6020821081141561337c57634e487b7160e01b600052602260045260246000fd5b50919050565b6000600019821415613396576133966133b1565b5060010190565b6000826133ac576133ac6133c7565b500690565b634e487b7160e01b600052601160045260246000fd5b634e487b7160e01b600052601260045260246000fd5b634e487b7160e01b600052604160045260246000fd5b6001600160e01b03198116811461079657600080fdfea2646970667358221220bd3525da78f9697649ec053af1027fc3d686ba9eb7458fdeed9a6874f11b243564736f6c63430008010033",
  "linkReferences": {},
  "deployedLinkReferences": {}
}