{
  "_format": "hh-sol-artifact-1",
  "contractName": "LTC",
  "sourceName": "contracts/LTC.sol",
  "abi": [
    {
      "inputs": [
        {
          "internalType": "contract LAND",
          "name": "_land",
          "type": "address"
        }
      ],
      "stateMutability": "nonpayable",
      "type": "constructor"
    },
    {
      "anonymous": false,
      "inputs": [
        {
          "indexed": true,
          "internalType": "address",
          "name": "owner",
          "type": "address"
        },
        {
          "indexed": true,
          "internalType": "address",
          "name": "spender",
          "type": "address"
        },
        {
          "indexed": false,
          "internalType": "uint256",
          "name": "value",
          "type": "uint256"
        }
      ],
      "name": "Approval",
      "type": "event"
    },
    {
      "anonymous": false,
      "inputs": [
        {
          "indexed": true,
          "internalType": "address",
          "name": "from",
          "type": "address"
        },
        {
          "indexed": true,
          "internalType": "address",
          "name": "to",
          "type": "address"
        },
        {
          "indexed": false,
          "internalType": "uint256",
          "name": "value",
          "type": "uint256"
        }
      ],
      "name": "Transfer",
      "type": "event"
    },
    {
      "inputs": [],
      "name": "TOTAL_SUPPLY",
      "outputs": [
        {
          "internalType": "uint256",
          "name": "",
          "type": "uint256"
        }
      ],
      "stateMutability": "view",
      "type": "function"
    },
    {
      "inputs": [
        {
          "internalType": "address",
          "name": "owner",
          "type": "address"
        },
        {
          "internalType": "address",
          "name": "spender",
          "type": "address"
        }
      ],
      "name": "allowance",
      "outputs": [
        {
          "internalType": "uint256",
          "name": "",
          "type": "uint256"
        }
      ],
      "stateMutability": "view",
      "type": "function"
    },
    {
      "inputs": [
        {
          "internalType": "address",
          "name": "spender",
          "type": "address"
        },
        {
          "internalType": "uint256",
          "name": "amount",
          "type": "uint256"
        }
      ],
      "name": "approve",
      "outputs": [
        {
          "internalType": "bool",
          "name": "",
          "type": "bool"
        }
      ],
      "stateMutability": "nonpayable",
      "type": "function"
    },
    {
      "inputs": [
        {
          "internalType": "address",
          "name": "account",
          "type": "address"
        }
      ],
      "name": "balanceOf",
      "outputs": [
        {
          "internalType": "uint256",
          "name": "",
          "type": "uint256"
        }
      ],
      "stateMutability": "view",
      "type": "function"
    },
    {
      "inputs": [
        {
          "internalType": "uint256",
          "name": "eType",
          "type": "uint256"
        }
      ],
      "name": "claimReward",
      "outputs": [],
      "stateMutability": "nonpayable",
      "type": "function"
    },
    {
      "inputs": [],
      "name": "decimals",
      "outputs": [
        {
          "internalType": "uint8",
          "name": "",
          "type": "uint8"
        }
      ],
      "stateMutability": "view",
      "type": "function"
    },
    {
      "inputs": [
        {
          "internalType": "address",
          "name": "spender",
          "type": "address"
        },
        {
          "internalType": "uint256",
          "name": "subtractedValue",
          "type": "uint256"
        }
      ],
      "name": "decreaseAllowance",
      "outputs": [
        {
          "internalType": "bool",
          "name": "",
          "type": "bool"
        }
      ],
      "stateMutability": "nonpayable",
      "type": "function"
    },
    {
      "inputs": [
        {
          "internalType": "address",
          "name": "spender",
          "type": "address"
        },
        {
          "internalType": "uint256",
          "name": "addedValue",
          "type": "uint256"
        }
      ],
      "name": "increaseAllowance",
      "outputs": [
        {
          "internalType": "bool",
          "name": "",
          "type": "bool"
        }
      ],
      "stateMutability": "nonpayable",
      "type": "function"
    },
    {
      "inputs": [],
      "name": "name",
      "outputs": [
        {
          "internalType": "string",
          "name": "",
          "type": "string"
        }
      ],
      "stateMutability": "view",
      "type": "function"
    },
    {
      "inputs": [
        {
          "internalType": "address",
          "name": "addr",
          "type": "address"
        },
        {
          "internalType": "uint256",
          "name": "eType",
          "type": "uint256"
        }
      ],
      "name": "rewardData",
      "outputs": [
        {
          "internalType": "uint256[]",
          "name": "",
          "type": "uint256[]"
        }
      ],
      "stateMutability": "view",
      "type": "function"
    },
    {
      "inputs": [],
      "name": "symbol",
      "outputs": [
        {
          "internalType": "string",
          "name": "",
          "type": "string"
        }
      ],
      "stateMutability": "view",
      "type": "function"
    },
    {
      "inputs": [],
      "name": "totalSupply",
      "outputs": [
        {
          "internalType": "uint256",
          "name": "",
          "type": "uint256"
        }
      ],
      "stateMutability": "view",
      "type": "function"
    },
    {
      "inputs": [
        {
          "internalType": "address",
          "name": "to",
          "type": "address"
        },
        {
          "internalType": "uint256",
          "name": "amount",
          "type": "uint256"
        }
      ],
      "name": "transfer",
      "outputs": [
        {
          "internalType": "bool",
          "name": "",
          "type": "bool"
        }
      ],
      "stateMutability": "nonpayable",
      "type": "function"
    },
    {
      "inputs": [
        {
          "internalType": "address",
          "name": "from",
          "type": "address"
        },
        {
          "internalType": "address",
          "name": "to",
          "type": "address"
        },
        {
          "internalType": "uint256",
          "name": "amount",
          "type": "uint256"
        }
      ],
      "name": "transferFrom",
      "outputs": [
        {
          "internalType": "bool",
          "name": "",
          "type": "bool"
        }
      ],
      "stateMutability": "nonpayable",
      "type": "function"
    }
  ],
  "bytecode": "0x60806040526005600a556007600b556078600c553480156200002057600080fd5b506040516200132b3803806200132b833981016040819052620000439162000216565b604080518082018252600b81526a546573744d6574614c544360a81b602080830191825283518085019094526008845267546573746d4c544360c01b908401528151919291620000969160039162000170565b508051620000ac90600490602084019062000170565b5050600680546001600160a01b0319166001600160a01b039390931692909217909155506a457bb11fdb3df8d400000060055560096020526703782dace9d900007f74b05292d1d4b2b48b65261b07099d24244bcb069f138d9a6bfdcf776becac4c556706f05b59d3b200007fbb6daa0c283751197dfdc76590680f9005e97d6f23870deb1164ab60b28b9f5f556007600052670de0b6b3a76400007fae6299332bcd708cd60e3a8defa55de28078a50a4cf2b3de3a546253240ff9e15562000283565b8280546200017e9062000246565b90600052602060002090601f016020900481019282620001a25760008555620001ed565b82601f10620001bd57805160ff1916838001178555620001ed565b82800160010185558215620001ed579182015b82811115620001ed578251825591602001919060010190620001d0565b50620001fb929150620001ff565b5090565b5b80821115620001fb576000815560010162000200565b60006020828403121562000228578081fd5b81516001600160a01b03811681146200023f578182fd5b9392505050565b6002810460018216806200025b57607f821691505b602082108114156200027d57634e487b7160e01b600052602260045260246000fd5b50919050565b61109880620002936000396000f3fe608060405234801561001057600080fd5b50600436106100ea5760003560e01c806370a082311161008c578063a457c2d711610066578063a457c2d7146101c0578063a9059cbb146101d3578063ae169a50146101e6578063dd62ed3e146101fb576100ea565b806370a082311461019d578063902d55a5146101b057806395d89b41146101b8576100ea565b806323b872dd116100c857806323b872dd14610142578063313ce56714610155578063381748621461016a578063395093511461018a576100ea565b806306fdde03146100ef578063095ea7b31461010d57806318160ddd1461012d575b600080fd5b6100f761020e565b6040516101049190610ccd565b60405180910390f35b61012061011b366004610c0c565b6102a0565b6040516101049190610cc2565b6101356102c2565b6040516101049190610fac565b610120610150366004610bd1565b6102c8565b61015d6102f6565b6040516101049190610fb5565b61017d610178366004610c0c565b6102fb565b6040516101049190610c7e565b610120610198366004610c0c565b610538565b6101356101ab366004610b7e565b610584565b6101356105a3565b6100f76105a9565b6101206101ce366004610c0c565b6105b8565b6101206101e1366004610c0c565b610622565b6101f96101f4366004610c35565b61063a565b005b610135610209366004610b9f565b610845565b60606003805461021d90611011565b80601f016020809104026020016040519081016040528092919081815260200182805461024990611011565b80156102965780601f1061026b57610100808354040283529160200191610296565b820191906000526020600020905b81548152906001019060200180831161027957829003601f168201915b5050505050905090565b6000806102ab610870565b90506102b8818585610874565b5060019392505050565b60025490565b6000806102d3610870565b90506102e0858285610928565b6102eb858585610972565b506001949350505050565b601290565b6060600a5482101561030c57600080fd5b600b5482111561031b57600080fd5b60065460405163198f789160e21b81526000916001600160a01b03169063663de2449061034e9087908790600401610c65565b60206040518083038186803b15801561036657600080fd5b505afa15801561037a573d6000803e3d6000fd5b505050506040513d601f19601f8201168201806040525081019061039e9190610c4d565b6000848152600960205260409020546103b79190610fdb565b600c546001600160a01b0386166000908152600760209081526040808320888452909152902054919250906103ec9042610ffa565b10156103f6575060005b600c546006546040516001620182a560e41b031981526001600160a01b039091169063ffe7d5b09061042e9088908890600401610c65565b60206040518083038186803b15801561044657600080fd5b505afa15801561045a573d6000803e3d6000fd5b505050506040513d601f19601f8201168201806040525081019061047e9190610c4d565b6104889042610ffa565b1015610492575060005b6040805160028082526060820183526000926020830190803683375050506001600160a01b03861660009081526008602090815260408083208884529091528120548251929350918391906104f757634e487b7160e01b600052603260045260246000fd5b602002602001018181525050818160018151811061052557634e487b7160e01b600052603260045260246000fd5b6020908102919091010152949350505050565b600080610543610870565b6001600160a01b038082166000908152600160209081526040808320938916835292905220549091506102b8908290869061057f908790610fc3565b610874565b6001600160a01b0381166000908152602081905260409020545b919050565b60055481565b60606004805461021d90611011565b6000806105c3610870565b6001600160a01b03808216600090815260016020908152604080832093891683529290522054909150838110156106155760405162461bcd60e51b815260040161060c90610ee0565b60405180910390fd5b6102eb8286868403610874565b60008061062d610870565b90506102b8818585610972565b600a5481101561064957600080fd5b600b5481111561065857600080fd5b600c543360009081526007602090815260408083208584529091529020546106809042610ffa565b1161069d5760405162461bcd60e51b815260040161060c90610e22565b600c546006546040516001620182a560e41b031981526001600160a01b039091169063ffe7d5b0906106d59033908690600401610c65565b60206040518083038186803b1580156106ed57600080fd5b505afa158015610701573d6000803e3d6000fd5b505050506040513d601f19601f820116820180604052508101906107259190610c4d565b61072f9042610ffa565b1161074c5760405162461bcd60e51b815260040161060c90610f25565b60065460405163198f789160e21b81526000916001600160a01b03169063663de2449061077f9033908690600401610c65565b60206040518083038186803b15801561079757600080fd5b505afa1580156107ab573d6000803e3d6000fd5b505050506040513d601f19601f820116820180604052508101906107cf9190610c4d565b6000838152600960205260409020546107e89190610fdb565b90506107f43382610a96565b3360009081526008602090815260408083208584529091528120805483929061081e908490610fc3565b90915550503360009081526007602090815260408083209483529390529190912042905550565b6001600160a01b03918216600090815260016020908152604080832093909416825291909152205490565b3390565b6001600160a01b03831661089a5760405162461bcd60e51b815260040161060c90610e9c565b6001600160a01b0382166108c05760405162461bcd60e51b815260040161060c90610d63565b6001600160a01b0380841660008181526001602090815260408083209487168084529490915290819020849055517f8c5be1e5ebec7d5bd14f71427d1e84f3dd0314c0f7b2291e5b200ac8c7c3b9259061091b908590610fac565b60405180910390a3505050565b60006109348484610845565b9050600019811461096c578181101561095f5760405162461bcd60e51b815260040161060c90610da5565b61096c8484848403610874565b50505050565b6001600160a01b0383166109985760405162461bcd60e51b815260040161060c90610e57565b6001600160a01b0382166109be5760405162461bcd60e51b815260040161060c90610d20565b6109c9838383610b62565b6001600160a01b03831660009081526020819052604090205481811015610a025760405162461bcd60e51b815260040161060c90610ddc565b6001600160a01b03808516600090815260208190526040808220858503905591851681529081208054849290610a39908490610fc3565b92505081905550826001600160a01b0316846001600160a01b03167fddf252ad1be2c89b69c2b068fc378daa952ba7f163c4a11628f55a4df523b3ef84604051610a839190610fac565b60405180910390a361096c848484610b62565b6001600160a01b038216610abc5760405162461bcd60e51b815260040161060c90610f75565b610ac860008383610b62565b8060026000828254610ada9190610fc3565b90915550506001600160a01b03821660009081526020819052604081208054839290610b07908490610fc3565b90915550506040516001600160a01b038316906000907fddf252ad1be2c89b69c2b068fc378daa952ba7f163c4a11628f55a4df523b3ef90610b4a908590610fac565b60405180910390a3610b5e60008383610b62565b5050565b505050565b80356001600160a01b038116811461059e57600080fd5b600060208284031215610b8f578081fd5b610b9882610b67565b9392505050565b60008060408385031215610bb1578081fd5b610bba83610b67565b9150610bc860208401610b67565b90509250929050565b600080600060608486031215610be5578081fd5b610bee84610b67565b9250610bfc60208501610b67565b9150604084013590509250925092565b60008060408385031215610c1e578182fd5b610c2783610b67565b946020939093013593505050565b600060208284031215610c46578081fd5b5035919050565b600060208284031215610c5e578081fd5b5051919050565b6001600160a01b03929092168252602082015260400190565b6020808252825182820181905260009190848201906040850190845b81811015610cb657835183529284019291840191600101610c9a565b50909695505050505050565b901515815260200190565b6000602080835283518082850152825b81811015610cf957858101830151858201604001528201610cdd565b81811115610d0a5783604083870101525b50601f01601f1916929092016040019392505050565b60208082526023908201527f45524332303a207472616e7366657220746f20746865207a65726f206164647260408201526265737360e81b606082015260800190565b60208082526022908201527f45524332303a20617070726f766520746f20746865207a65726f206164647265604082015261737360f01b606082015260800190565b6020808252601d908201527f45524332303a20696e73756666696369656e7420616c6c6f77616e6365000000604082015260600190565b60208082526026908201527f45524332303a207472616e7366657220616d6f756e7420657863656564732062604082015265616c616e636560d01b606082015260800190565b6020808252818101527f596f752063616e20636c61696d2072657761726473206f6e6365206120646179604082015260600190565b60208082526025908201527f45524332303a207472616e736665722066726f6d20746865207a65726f206164604082015264647265737360d81b606082015260800190565b60208082526024908201527f45524332303a20617070726f76652066726f6d20746865207a65726f206164646040820152637265737360e01b606082015260800190565b60208082526025908201527f45524332303a2064656372656173656420616c6c6f77616e63652062656c6f77604082015264207a65726f60d81b606082015260800190565b60208082526030908201527f596f75206d757374207761697420323420686f757273206166746572206c617460408201526f32b9ba1034b739ba30b63630ba34b7b760811b606082015260800190565b6020808252601f908201527f45524332303a206d696e7420746f20746865207a65726f206164647265737300604082015260600190565b90815260200190565b60ff91909116815260200190565b60008219821115610fd657610fd661104c565b500190565b6000816000190483118215151615610ff557610ff561104c565b500290565b60008282101561100c5761100c61104c565b500390565b60028104600182168061102557607f821691505b6020821081141561104657634e487b7160e01b600052602260045260246000fd5b50919050565b634e487b7160e01b600052601160045260246000fdfea2646970667358221220ae340478192d448bde56a24ba664ec132ee819ef552cbc011c5e9bc524cc13d564736f6c63430008010033",
  "linkReferences": {},
  "deployedLinkReferences": {}
}