{
  "contractName": "MFL",
  "abi": [
    {
      "inputs": [],
      "stateMutability": "nonpayable",
      "type": "constructor"
    },
    {
      "anonymous": false,
      "inputs": [
        {
          "indexed": true,
          "internalType": "address",
          "name": "owner",
          "type": "address"
        },
        {
          "indexed": true,
          "internalType": "address",
          "name": "approved",
          "type": "address"
        },
        {
          "indexed": true,
          "internalType": "uint256",
          "name": "tokenId",
          "type": "uint256"
        }
      ],
      "name": "Approval",
      "type": "event"
    },
    {
      "anonymous": false,
      "inputs": [
        {
          "indexed": true,
          "internalType": "address",
          "name": "owner",
          "type": "address"
        },
        {
          "indexed": true,
          "internalType": "address",
          "name": "operator",
          "type": "address"
        },
        {
          "indexed": false,
          "internalType": "bool",
          "name": "approved",
          "type": "bool"
        }
      ],
      "name": "ApprovalForAll",
      "type": "event"
    },
    {
      "anonymous": false,
      "inputs": [
        {
          "indexed": true,
          "internalType": "address",
          "name": "from",
          "type": "address"
        },
        {
          "indexed": true,
          "internalType": "address",
          "name": "to",
          "type": "address"
        },
        {
          "indexed": true,
          "internalType": "uint256",
          "name": "tokenId",
          "type": "uint256"
        }
      ],
      "name": "Transfer",
      "type": "event"
    },
    {
      "inputs": [
        {
          "internalType": "address",
          "name": "to",
          "type": "address"
        },
        {
          "internalType": "uint256",
          "name": "tokenId",
          "type": "uint256"
        }
      ],
      "name": "approve",
      "outputs": [],
      "stateMutability": "nonpayable",
      "type": "function"
    },
    {
      "inputs": [
        {
          "internalType": "address",
          "name": "owner",
          "type": "address"
        }
      ],
      "name": "balanceOf",
      "outputs": [
        {
          "internalType": "uint256",
          "name": "",
          "type": "uint256"
        }
      ],
      "stateMutability": "view",
      "type": "function",
      "constant": true
    },
    {
      "inputs": [
        {
          "internalType": "uint256",
          "name": "tokenId",
          "type": "uint256"
        }
      ],
      "name": "getApproved",
      "outputs": [
        {
          "internalType": "address",
          "name": "",
          "type": "address"
        }
      ],
      "stateMutability": "view",
      "type": "function",
      "constant": true
    },
    {
      "inputs": [
        {
          "internalType": "address",
          "name": "owner",
          "type": "address"
        },
        {
          "internalType": "address",
          "name": "operator",
          "type": "address"
        }
      ],
      "name": "isApprovedForAll",
      "outputs": [
        {
          "internalType": "bool",
          "name": "",
          "type": "bool"
        }
      ],
      "stateMutability": "view",
      "type": "function",
      "constant": true
    },
    {
      "inputs": [],
      "name": "name",
      "outputs": [
        {
          "internalType": "string",
          "name": "",
          "type": "string"
        }
      ],
      "stateMutability": "view",
      "type": "function",
      "constant": true
    },
    {
      "inputs": [
        {
          "internalType": "uint256",
          "name": "tokenId",
          "type": "uint256"
        }
      ],
      "name": "ownerOf",
      "outputs": [
        {
          "internalType": "address",
          "name": "",
          "type": "address"
        }
      ],
      "stateMutability": "view",
      "type": "function",
      "constant": true
    },
    {
      "inputs": [
        {
          "internalType": "address",
          "name": "from",
          "type": "address"
        },
        {
          "internalType": "address",
          "name": "to",
          "type": "address"
        },
        {
          "internalType": "uint256",
          "name": "tokenId",
          "type": "uint256"
        }
      ],
      "name": "safeTransferFrom",
      "outputs": [],
      "stateMutability": "nonpayable",
      "type": "function"
    },
    {
      "inputs": [
        {
          "internalType": "address",
          "name": "from",
          "type": "address"
        },
        {
          "internalType": "address",
          "name": "to",
          "type": "address"
        },
        {
          "internalType": "uint256",
          "name": "tokenId",
          "type": "uint256"
        },
        {
          "internalType": "bytes",
          "name": "_data",
          "type": "bytes"
        }
      ],
      "name": "safeTransferFrom",
      "outputs": [],
      "stateMutability": "nonpayable",
      "type": "function"
    },
    {
      "inputs": [
        {
          "internalType": "address",
          "name": "operator",
          "type": "address"
        },
        {
          "internalType": "bool",
          "name": "approved",
          "type": "bool"
        }
      ],
      "name": "setApprovalForAll",
      "outputs": [],
      "stateMutability": "nonpayable",
      "type": "function"
    },
    {
      "inputs": [
        {
          "internalType": "bytes4",
          "name": "interfaceId",
          "type": "bytes4"
        }
      ],
      "name": "supportsInterface",
      "outputs": [
        {
          "internalType": "bool",
          "name": "",
          "type": "bool"
        }
      ],
      "stateMutability": "view",
      "type": "function",
      "constant": true
    },
    {
      "inputs": [],
      "name": "symbol",
      "outputs": [
        {
          "internalType": "string",
          "name": "",
          "type": "string"
        }
      ],
      "stateMutability": "view",
      "type": "function",
      "constant": true
    },
    {
      "inputs": [
        {
          "internalType": "uint256",
          "name": "tokenId",
          "type": "uint256"
        }
      ],
      "name": "tokenURI",
      "outputs": [
        {
          "internalType": "string",
          "name": "",
          "type": "string"
        }
      ],
      "stateMutability": "view",
      "type": "function",
      "constant": true
    },
    {
      "inputs": [
        {
          "internalType": "address",
          "name": "from",
          "type": "address"
        },
        {
          "internalType": "address",
          "name": "to",
          "type": "address"
        },
        {
          "internalType": "uint256",
          "name": "tokenId",
          "type": "uint256"
        }
      ],
      "name": "transferFrom",
      "outputs": [],
      "stateMutability": "nonpayable",
      "type": "function"
    },
    {
      "inputs": [
        {
          "internalType": "address",
          "name": "addr",
          "type": "address"
        }
      ],
      "name": "getMyLands",
      "outputs": [
        {
          "internalType": "uint256[]",
          "name": "",
          "type": "uint256[]"
        }
      ],
      "stateMutability": "view",
      "type": "function",
      "constant": true
    },
    {
      "inputs": [
        {
          "internalType": "address",
          "name": "addr",
          "type": "address"
        }
      ],
      "name": "getMyLandStatuses",
      "outputs": [
        {
          "internalType": "uint256[]",
          "name": "",
          "type": "uint256[]"
        }
      ],
      "stateMutability": "view",
      "type": "function",
      "constant": true
    },
    {
      "inputs": [
        {
          "internalType": "uint256",
          "name": "tokenId",
          "type": "uint256"
        }
      ],
      "name": "mintLand",
      "outputs": [],
      "stateMutability": "payable",
      "type": "function",
      "payable": true
    },
    {
      "inputs": [
        {
          "internalType": "uint256",
          "name": "tokenId",
          "type": "uint256"
        },
        {
          "internalType": "uint256",
          "name": "newStatus",
          "type": "uint256"
        }
      ],
      "name": "updateStatus",
      "outputs": [],
      "stateMutability": "payable",
      "type": "function",
      "payable": true
    },
    {
      "inputs": [
        {
          "internalType": "uint256",
          "name": "start",
          "type": "uint256"
        },
        {
          "internalType": "uint256",
          "name": "end",
          "type": "uint256"
        }
      ],
      "name": "getStatus",
      "outputs": [
        {
          "internalType": "uint256[]",
          "name": "",
          "type": "uint256[]"
        }
      ],
      "stateMutability": "view",
      "type": "function",
      "constant": true
    }
  ],
  "bytecode": "0x6080604052620f4240600755662386f26fc100006008553480156200002357600080fd5b506040518060400160405280600381526020017f4d464c00000000000000000000000000000000000000000000000000000000008152506040518060400160405280600381526020017f4d464c00000000000000000000000000000000000000000000000000000000008152508160009080519060200190620000a8929190620001ec565b508060019080519060200190620000c1929190620001ec565b505050662386f26fc1000060066000600281526020019081526020016000208190555066470de4df820000600660006003815260200190815260200160002081905550666a94d74f430000600660006004815260200190815260200160002081905550668e1bc9bf04000060066000600581526020019081526020016000208190555066b1a2bc2ec5000060066000600681526020019081526020016000208190555066d529ae9e86000060066000600781526020019081526020016000208190555066f8b0a10e47000060066000600881526020019081526020016000208190555067011c37937e08000060066000600981526020019081526020016000208190555067013fbe85edc9000060066000600a81526020019081526020016000208190555062000301565b828054620001fa90620002cb565b90600052602060002090601f0160209004810192826200021e57600085556200026a565b82601f106200023957805160ff19168380011785556200026a565b828001600101855582156200026a579182015b82811115620002695782518255916020019190600101906200024c565b5b5090506200027991906200027d565b5090565b5b80821115620002985760008160009055506001016200027e565b5090565b7f4e487b7100000000000000000000000000000000000000000000000000000000600052602260045260246000fd5b60006002820490506001821680620002e457607f821691505b60208210811415620002fb57620002fa6200029c565b5b50919050565b61349080620003116000396000f3fe6080604052600436106101095760003560e01c8063728239f911610095578063a745da6511610064578063a745da6514610392578063b88d4fde146103cf578063c87b56dd146103f8578063e2f3182914610435578063e985e9c51461045157610109565b8063728239f9146102e557806395d89b4114610301578063a22cb4651461032c578063a6a6ab6c1461035557610109565b806323b872dd116100dc57806323b872dd146101dc57806342842e0e146102055780634c769b341461022e5780636352211e1461026b57806370a08231146102a857610109565b806301ffc9a71461010e57806306fdde031461014b578063081812fc14610176578063095ea7b3146101b3575b600080fd5b34801561011a57600080fd5b506101356004803603810190610130919061221b565b61048e565b6040516101429190612263565b60405180910390f35b34801561015757600080fd5b50610160610570565b60405161016d9190612317565b60405180910390f35b34801561018257600080fd5b5061019d6004803603810190610198919061236f565b610602565b6040516101aa91906123dd565b60405180910390f35b3480156101bf57600080fd5b506101da60048036038101906101d59190612424565b610687565b005b3480156101e857600080fd5b5061020360048036038101906101fe9190612464565b61079f565b005b34801561021157600080fd5b5061022c60048036038101906102279190612464565b6107ff565b005b34801561023a57600080fd5b50610255600480360381019061025091906124b7565b61081f565b60405161026291906125a2565b60405180910390f35b34801561027757600080fd5b50610292600480360381019061028d919061236f565b6108b6565b60405161029f91906123dd565b60405180910390f35b3480156102b457600080fd5b506102cf60048036038101906102ca91906124b7565b610968565b6040516102dc91906125d3565b60405180910390f35b6102ff60048036038101906102fa919061236f565b610a20565b005b34801561030d57600080fd5b50610316610cc9565b6040516103239190612317565b60405180910390f35b34801561033857600080fd5b50610353600480360381019061034e919061261a565b610d5b565b005b34801561036157600080fd5b5061037c600480360381019061037791906124b7565b610d71565b60405161038991906125a2565b60405180910390f35b34801561039e57600080fd5b506103b960048036038101906103b4919061265a565b610e08565b6040516103c691906125a2565b60405180910390f35b3480156103db57600080fd5b506103f660048036038101906103f191906127cf565b610ef7565b005b34801561040457600080fd5b5061041f600480360381019061041a919061236f565b610f59565b60405161042c9190612317565b60405180910390f35b61044f600480360381019061044a919061265a565b611000565b005b34801561045d57600080fd5b5061047860048036038101906104739190612852565b611153565b6040516104859190612263565b60405180910390f35b60007f80ac58cd000000000000000000000000000000000000000000000000000000007bffffffffffffffffffffffffffffffffffffffffffffffffffffffff1916827bffffffffffffffffffffffffffffffffffffffffffffffffffffffff1916148061055957507f5b5e139f000000000000000000000000000000000000000000000000000000007bffffffffffffffffffffffffffffffffffffffffffffffffffffffff1916827bffffffffffffffffffffffffffffffffffffffffffffffffffffffff1916145b806105695750610568826111e7565b5b9050919050565b60606000805461057f906128c1565b80601f01602080910402602001604051908101604052809291908181526020018280546105ab906128c1565b80156105f85780601f106105cd576101008083540402835291602001916105f8565b820191906000526020600020905b8154815290600101906020018083116105db57829003601f168201915b5050505050905090565b600061060d82611251565b61064c576040517f08c379a000000000000000000000000000000000000000000000000000000000815260040161064390612965565b60405180910390fd5b6004600083815260200190815260200160002060009054906101000a900473ffffffffffffffffffffffffffffffffffffffff169050919050565b6000610692826108b6565b90508073ffffffffffffffffffffffffffffffffffffffff168373ffffffffffffffffffffffffffffffffffffffff161415610703576040517f08c379a00000000000000000000000000000000000000000000000000000000081526004016106fa906129f7565b60405180910390fd5b8073ffffffffffffffffffffffffffffffffffffffff166107226112bd565b73ffffffffffffffffffffffffffffffffffffffff16148061075157506107508161074b6112bd565b611153565b5b610790576040517f08c379a000000000000000000000000000000000000000000000000000000000815260040161078790612a89565b60405180910390fd5b61079a83836112c5565b505050565b6107b06107aa6112bd565b8261137e565b6107ef576040517f08c379a00000000000000000000000000000000000000000000000000000000081526004016107e690612b1b565b60405180910390fd5b6107fa83838361145c565b505050565b61081a83838360405180602001604052806000815250610ef7565b505050565b6060600c60008373ffffffffffffffffffffffffffffffffffffffff1673ffffffffffffffffffffffffffffffffffffffff1681526020019081526020016000208054806020026020016040519081016040528092919081815260200182805480156108aa57602002820191906000526020600020905b815481526020019060010190808311610896575b50505050509050919050565b6000806002600084815260200190815260200160002060009054906101000a900473ffffffffffffffffffffffffffffffffffffffff169050600073ffffffffffffffffffffffffffffffffffffffff168173ffffffffffffffffffffffffffffffffffffffff16141561095f576040517f08c379a000000000000000000000000000000000000000000000000000000000815260040161095690612bad565b60405180910390fd5b80915050919050565b60008073ffffffffffffffffffffffffffffffffffffffff168273ffffffffffffffffffffffffffffffffffffffff1614156109d9576040517f08c379a00000000000000000000000000000000000000000000000000000000081526004016109d090612c3f565b60405180910390fd5b600360008373ffffffffffffffffffffffffffffffffffffffff1673ffffffffffffffffffffffffffffffffffffffff168152602001908152602001600020549050919050565b6008543414610a64576040517f08c379a0000000000000000000000000000000000000000000000000000000008152600401610a5b90612cab565b60405180910390fd5b6007548110610aa8576040517f08c379a0000000000000000000000000000000000000000000000000000000008152600401610a9f90612d17565b60405180910390fd5b610ab233826116b8565b60016009600083815260200190815260200160002081905550600c60003373ffffffffffffffffffffffffffffffffffffffff1673ffffffffffffffffffffffffffffffffffffffff16815260200190815260200160002060019080600181540180825580915050600190039060005260206000200160009091909190915055600c60003373ffffffffffffffffffffffffffffffffffffffff1673ffffffffffffffffffffffffffffffffffffffff16815260200190815260200160002080549050600d60003373ffffffffffffffffffffffffffffffffffffffff1673ffffffffffffffffffffffffffffffffffffffff168152602001908152602001600020600083815260200190815260200160002081905550600a60003373ffffffffffffffffffffffffffffffffffffffff1673ffffffffffffffffffffffffffffffffffffffff168152602001908152602001600020819080600181540180825580915050600190039060005260206000200160009091909190915055600a60003373ffffffffffffffffffffffffffffffffffffffff1673ffffffffffffffffffffffffffffffffffffffff16815260200190815260200160002080549050600b60003373ffffffffffffffffffffffffffffffffffffffff1673ffffffffffffffffffffffffffffffffffffffff16815260200190815260200160002060008381526020019081526020016000208190555050565b606060018054610cd8906128c1565b80601f0160208091040260200160405190810160405280929190818152602001828054610d04906128c1565b8015610d515780601f10610d2657610100808354040283529160200191610d51565b820191906000526020600020905b815481529060010190602001808311610d3457829003601f168201915b5050505050905090565b610d6d610d666112bd565b8383611886565b5050565b6060600a60008373ffffffffffffffffffffffffffffffffffffffff1673ffffffffffffffffffffffffffffffffffffffff168152602001908152602001600020805480602002602001604051908101604052809291908181526020018280548015610dfc57602002820191906000526020600020905b815481526020019060010190808311610de8575b50505050509050919050565b6060828211610e1657600080fd5b600754821115610e2557600080fd5b600060018484610e359190612d66565b610e3f9190612d9a565b67ffffffffffffffff811115610e5857610e576126a4565b5b604051908082528060200260200182016040528015610e865781602001602082028036833780820191505090505b5090506000808590505b848111610eeb576009600082815260200190815260200160002054838381518110610ebe57610ebd612df0565b5b6020026020010181815250508180610ed590612e1f565b9250508080610ee390612e1f565b915050610e90565b50819250505092915050565b610f08610f026112bd565b8361137e565b610f47576040517f08c379a0000000000000000000000000000000000000000000000000000000008152600401610f3e90612b1b565b60405180910390fd5b610f53848484846119f3565b50505050565b6060610f6482611251565b610fa3576040517f08c379a0000000000000000000000000000000000000000000000000000000008152600401610f9a90612eda565b60405180910390fd5b6000610fad611a4f565b90506000815111610fcd5760405180602001604052806000815250610ff8565b80610fd784611a66565b604051602001610fe8929190612f36565b6040516020818303038152906040525b915050919050565b600281101561100e57600080fd5b600a81111561101c57600080fd5b6006600082815260200190815260200160002054341461103b57600080fd5b3373ffffffffffffffffffffffffffffffffffffffff1661105b836108b6565b73ffffffffffffffffffffffffffffffffffffffff161461107b57600080fd5b80600960008481526020019081526020016000208190555080600c60003373ffffffffffffffffffffffffffffffffffffffff1673ffffffffffffffffffffffffffffffffffffffff1681526020019081526020016000206001600d60003373ffffffffffffffffffffffffffffffffffffffff1673ffffffffffffffffffffffffffffffffffffffff1681526020019081526020016000206000868152602001908152602001600020546111309190612d66565b8154811061114157611140612df0565b5b90600052602060002001819055505050565b6000600560008473ffffffffffffffffffffffffffffffffffffffff1673ffffffffffffffffffffffffffffffffffffffff16815260200190815260200160002060008373ffffffffffffffffffffffffffffffffffffffff1673ffffffffffffffffffffffffffffffffffffffff16815260200190815260200160002060009054906101000a900460ff16905092915050565b60007f01ffc9a7000000000000000000000000000000000000000000000000000000007bffffffffffffffffffffffffffffffffffffffffffffffffffffffff1916827bffffffffffffffffffffffffffffffffffffffffffffffffffffffff1916149050919050565b60008073ffffffffffffffffffffffffffffffffffffffff166002600084815260200190815260200160002060009054906101000a900473ffffffffffffffffffffffffffffffffffffffff1673ffffffffffffffffffffffffffffffffffffffff1614159050919050565b600033905090565b816004600083815260200190815260200160002060006101000a81548173ffffffffffffffffffffffffffffffffffffffff021916908373ffffffffffffffffffffffffffffffffffffffff160217905550808273ffffffffffffffffffffffffffffffffffffffff16611338836108b6565b73ffffffffffffffffffffffffffffffffffffffff167f8c5be1e5ebec7d5bd14f71427d1e84f3dd0314c0f7b2291e5b200ac8c7c3b92560405160405180910390a45050565b600061138982611251565b6113c8576040517f08c379a00000000000000000000000000000000000000000000000000000000081526004016113bf90612fcc565b60405180910390fd5b60006113d3836108b6565b90508073ffffffffffffffffffffffffffffffffffffffff168473ffffffffffffffffffffffffffffffffffffffff16148061144257508373ffffffffffffffffffffffffffffffffffffffff1661142a84610602565b73ffffffffffffffffffffffffffffffffffffffff16145b8061145357506114528185611153565b5b91505092915050565b8273ffffffffffffffffffffffffffffffffffffffff1661147c826108b6565b73ffffffffffffffffffffffffffffffffffffffff16146114d2576040517f08c379a00000000000000000000000000000000000000000000000000000000081526004016114c99061305e565b60405180910390fd5b600073ffffffffffffffffffffffffffffffffffffffff168273ffffffffffffffffffffffffffffffffffffffff161415611542576040517f08c379a0000000000000000000000000000000000000000000000000000000008152600401611539906130f0565b60405180910390fd5b61154d838383611bc7565b6115586000826112c5565b6001600360008573ffffffffffffffffffffffffffffffffffffffff1673ffffffffffffffffffffffffffffffffffffffff16815260200190815260200160002060008282546115a89190612d66565b925050819055506001600360008473ffffffffffffffffffffffffffffffffffffffff1673ffffffffffffffffffffffffffffffffffffffff16815260200190815260200160002060008282546115ff9190612d9a565b92505081905550816002600083815260200190815260200160002060006101000a81548173ffffffffffffffffffffffffffffffffffffffff021916908373ffffffffffffffffffffffffffffffffffffffff160217905550808273ffffffffffffffffffffffffffffffffffffffff168473ffffffffffffffffffffffffffffffffffffffff167fddf252ad1be2c89b69c2b068fc378daa952ba7f163c4a11628f55a4df523b3ef60405160405180910390a4505050565b600073ffffffffffffffffffffffffffffffffffffffff168273ffffffffffffffffffffffffffffffffffffffff161415611728576040517f08c379a000000000000000000000000000000000000000000000000000000000815260040161171f9061315c565b60405180910390fd5b61173181611251565b15611771576040517f08c379a0000000000000000000000000000000000000000000000000000000008152600401611768906131c8565b60405180910390fd5b61177d60008383611bc7565b6001600360008473ffffffffffffffffffffffffffffffffffffffff1673ffffffffffffffffffffffffffffffffffffffff16815260200190815260200160002060008282546117cd9190612d9a565b92505081905550816002600083815260200190815260200160002060006101000a81548173ffffffffffffffffffffffffffffffffffffffff021916908373ffffffffffffffffffffffffffffffffffffffff160217905550808273ffffffffffffffffffffffffffffffffffffffff16600073ffffffffffffffffffffffffffffffffffffffff167fddf252ad1be2c89b69c2b068fc378daa952ba7f163c4a11628f55a4df523b3ef60405160405180910390a45050565b8173ffffffffffffffffffffffffffffffffffffffff168373ffffffffffffffffffffffffffffffffffffffff1614156118f5576040517f08c379a00000000000000000000000000000000000000000000000000000000081526004016118ec90613234565b60405180910390fd5b80600560008573ffffffffffffffffffffffffffffffffffffffff1673ffffffffffffffffffffffffffffffffffffffff16815260200190815260200160002060008473ffffffffffffffffffffffffffffffffffffffff1673ffffffffffffffffffffffffffffffffffffffff16815260200190815260200160002060006101000a81548160ff0219169083151502179055508173ffffffffffffffffffffffffffffffffffffffff168373ffffffffffffffffffffffffffffffffffffffff167f17307eab39ab6107e8899845ad3d59bd9653f200f220920489ca2b5937696c31836040516119e69190612263565b60405180910390a3505050565b6119fe84848461145c565b611a0a84848484612014565b611a49576040517f08c379a0000000000000000000000000000000000000000000000000000000008152600401611a40906132c6565b60405180910390fd5b50505050565b606060405180602001604052806000815250905090565b60606000821415611aae576040518060400160405280600181526020017f30000000000000000000000000000000000000000000000000000000000000008152509050611bc2565b600082905060005b60008214611ae0578080611ac990612e1f565b915050600a82611ad99190613315565b9150611ab6565b60008167ffffffffffffffff811115611afc57611afb6126a4565b5b6040519080825280601f01601f191660200182016040528015611b2e5781602001600182028036833780820191505090505b5090505b60008514611bbb57600182611b479190612d66565b9150600a85611b569190613346565b6030611b629190612d9a565b60f81b818381518110611b7857611b77612df0565b5b60200101907effffffffffffffffffffffffffffffffffffffffffffffffffffffffffffff1916908160001a905350600a85611bb49190613315565b9450611b32565b8093505050505b919050565b60006009600083815260200190815260200160002054111561200f57600a60008473ffffffffffffffffffffffffffffffffffffffff1673ffffffffffffffffffffffffffffffffffffffff1681526020019081526020016000206001600b60008673ffffffffffffffffffffffffffffffffffffffff1673ffffffffffffffffffffffffffffffffffffffff168152602001908152602001600020600084815260200190815260200160002054611c7f9190612d66565b81548110611c9057611c8f612df0565b5b9060005260206000200160009055600b60008473ffffffffffffffffffffffffffffffffffffffff1673ffffffffffffffffffffffffffffffffffffffff168152602001908152602001600020600082815260200190815260200160002060009055600c60008473ffffffffffffffffffffffffffffffffffffffff1673ffffffffffffffffffffffffffffffffffffffff1681526020019081526020016000206001600d60008673ffffffffffffffffffffffffffffffffffffffff1673ffffffffffffffffffffffffffffffffffffffff168152602001908152602001600020600084815260200190815260200160002054611d8e9190612d66565b81548110611d9f57611d9e612df0565b5b9060005260206000200160009055600d60008473ffffffffffffffffffffffffffffffffffffffff1673ffffffffffffffffffffffffffffffffffffffff168152602001908152602001600020600082815260200190815260200160002060009055600a60008373ffffffffffffffffffffffffffffffffffffffff1673ffffffffffffffffffffffffffffffffffffffff168152602001908152602001600020819080600181540180825580915050600190039060005260206000200160009091909190915055600a60008373ffffffffffffffffffffffffffffffffffffffff1673ffffffffffffffffffffffffffffffffffffffff16815260200190815260200160002080549050600b60008473ffffffffffffffffffffffffffffffffffffffff1673ffffffffffffffffffffffffffffffffffffffff168152602001908152602001600020600083815260200190815260200160002081905550600c60008373ffffffffffffffffffffffffffffffffffffffff1673ffffffffffffffffffffffffffffffffffffffff16815260200190815260200160002060096000838152602001908152602001600020549080600181540180825580915050600190039060005260206000200160009091909190915055600c60008373ffffffffffffffffffffffffffffffffffffffff1673ffffffffffffffffffffffffffffffffffffffff16815260200190815260200160002080549050600d60008473ffffffffffffffffffffffffffffffffffffffff1673ffffffffffffffffffffffffffffffffffffffff1681526020019081526020016000206000838152602001908152602001600020819055505b505050565b60006120358473ffffffffffffffffffffffffffffffffffffffff1661219c565b1561218f578373ffffffffffffffffffffffffffffffffffffffff1663150b7a0261205e6112bd565b8786866040518563ffffffff1660e01b815260040161208094939291906133cc565b6020604051808303816000875af19250505080156120bc57506040513d601f19601f820116820180604052508101906120b9919061342d565b60015b61213f573d80600081146120ec576040519150601f19603f3d011682016040523d82523d6000602084013e6120f1565b606091505b50600081511415612137576040517f08c379a000000000000000000000000000000000000000000000000000000000815260040161212e906132c6565b60405180910390fd5b805181602001fd5b63150b7a0260e01b7bffffffffffffffffffffffffffffffffffffffffffffffffffffffff1916817bffffffffffffffffffffffffffffffffffffffffffffffffffffffff191614915050612194565b600190505b949350505050565b600080823b905060008111915050919050565b6000604051905090565b600080fd5b600080fd5b60007fffffffff0000000000000000000000000000000000000000000000000000000082169050919050565b6121f8816121c3565b811461220357600080fd5b50565b600081359050612215816121ef565b92915050565b600060208284031215612231576122306121b9565b5b600061223f84828501612206565b91505092915050565b60008115159050919050565b61225d81612248565b82525050565b60006020820190506122786000830184612254565b92915050565b600081519050919050565b600082825260208201905092915050565b60005b838110156122b857808201518184015260208101905061229d565b838111156122c7576000848401525b50505050565b6000601f19601f8301169050919050565b60006122e98261227e565b6122f38185612289565b935061230381856020860161229a565b61230c816122cd565b840191505092915050565b6000602082019050818103600083015261233181846122de565b905092915050565b6000819050919050565b61234c81612339565b811461235757600080fd5b50565b60008135905061236981612343565b92915050565b600060208284031215612385576123846121b9565b5b60006123938482850161235a565b91505092915050565b600073ffffffffffffffffffffffffffffffffffffffff82169050919050565b60006123c78261239c565b9050919050565b6123d7816123bc565b82525050565b60006020820190506123f260008301846123ce565b92915050565b612401816123bc565b811461240c57600080fd5b50565b60008135905061241e816123f8565b92915050565b6000806040838503121561243b5761243a6121b9565b5b60006124498582860161240f565b925050602061245a8582860161235a565b9150509250929050565b60008060006060848603121561247d5761247c6121b9565b5b600061248b8682870161240f565b935050602061249c8682870161240f565b92505060406124ad8682870161235a565b9150509250925092565b6000602082840312156124cd576124cc6121b9565b5b60006124db8482850161240f565b91505092915050565b600081519050919050565b600082825260208201905092915050565b6000819050602082019050919050565b61251981612339565b82525050565b600061252b8383612510565b60208301905092915050565b6000602082019050919050565b600061254f826124e4565b61255981856124ef565b935061256483612500565b8060005b8381101561259557815161257c888261251f565b975061258783612537565b925050600181019050612568565b5085935050505092915050565b600060208201905081810360008301526125bc8184612544565b905092915050565b6125cd81612339565b82525050565b60006020820190506125e860008301846125c4565b92915050565b6125f781612248565b811461260257600080fd5b50565b600081359050612614816125ee565b92915050565b60008060408385031215612631576126306121b9565b5b600061263f8582860161240f565b925050602061265085828601612605565b9150509250929050565b60008060408385031215612671576126706121b9565b5b600061267f8582860161235a565b92505060206126908582860161235a565b9150509250929050565b600080fd5b600080fd5b7f4e487b7100000000000000000000000000000000000000000000000000000000600052604160045260246000fd5b6126dc826122cd565b810181811067ffffffffffffffff821117156126fb576126fa6126a4565b5b80604052505050565b600061270e6121af565b905061271a82826126d3565b919050565b600067ffffffffffffffff82111561273a576127396126a4565b5b612743826122cd565b9050602081019050919050565b82818337600083830152505050565b600061277261276d8461271f565b612704565b90508281526020810184848401111561278e5761278d61269f565b5b612799848285612750565b509392505050565b600082601f8301126127b6576127b561269a565b5b81356127c684826020860161275f565b91505092915050565b600080600080608085870312156127e9576127e86121b9565b5b60006127f78782880161240f565b94505060206128088782880161240f565b93505060406128198782880161235a565b925050606085013567ffffffffffffffff81111561283a576128396121be565b5b612846878288016127a1565b91505092959194509250565b60008060408385031215612869576128686121b9565b5b60006128778582860161240f565b92505060206128888582860161240f565b9150509250929050565b7f4e487b7100000000000000000000000000000000000000000000000000000000600052602260045260246000fd5b600060028204905060018216806128d957607f821691505b602082108114156128ed576128ec612892565b5b50919050565b7f4552433732313a20617070726f76656420717565727920666f72206e6f6e657860008201527f697374656e7420746f6b656e0000000000000000000000000000000000000000602082015250565b600061294f602c83612289565b915061295a826128f3565b604082019050919050565b6000602082019050818103600083015261297e81612942565b9050919050565b7f4552433732313a20617070726f76616c20746f2063757272656e74206f776e6560008201527f7200000000000000000000000000000000000000000000000000000000000000602082015250565b60006129e1602183612289565b91506129ec82612985565b604082019050919050565b60006020820190508181036000830152612a10816129d4565b9050919050565b7f4552433732313a20617070726f76652063616c6c6572206973206e6f74206f7760008201527f6e6572206e6f7220617070726f76656420666f7220616c6c0000000000000000602082015250565b6000612a73603883612289565b9150612a7e82612a17565b604082019050919050565b60006020820190508181036000830152612aa281612a66565b9050919050565b7f4552433732313a207472616e736665722063616c6c6572206973206e6f74206f60008201527f776e6572206e6f7220617070726f766564000000000000000000000000000000602082015250565b6000612b05603183612289565b9150612b1082612aa9565b604082019050919050565b60006020820190508181036000830152612b3481612af8565b9050919050565b7f4552433732313a206f776e657220717565727920666f72206e6f6e657869737460008201527f656e7420746f6b656e0000000000000000000000000000000000000000000000602082015250565b6000612b97602983612289565b9150612ba282612b3b565b604082019050919050565b60006020820190508181036000830152612bc681612b8a565b9050919050565b7f4552433732313a2062616c616e636520717565727920666f7220746865207a6560008201527f726f206164647265737300000000000000000000000000000000000000000000602082015250565b6000612c29602a83612289565b9150612c3482612bcd565b604082019050919050565b60006020820190508181036000830152612c5881612c1c565b9050919050565b7f496e76616c696420416d6f756e74000000000000000000000000000000000000600082015250565b6000612c95600e83612289565b9150612ca082612c5f565b602082019050919050565b60006020820190508181036000830152612cc481612c88565b9050919050565b7f496e76616c696420546f6b656e20496400000000000000000000000000000000600082015250565b6000612d01601083612289565b9150612d0c82612ccb565b602082019050919050565b60006020820190508181036000830152612d3081612cf4565b9050919050565b7f4e487b7100000000000000000000000000000000000000000000000000000000600052601160045260246000fd5b6000612d7182612339565b9150612d7c83612339565b925082821015612d8f57612d8e612d37565b5b828203905092915050565b6000612da582612339565b9150612db083612339565b9250827fffffffffffffffffffffffffffffffffffffffffffffffffffffffffffffffff03821115612de557612de4612d37565b5b828201905092915050565b7f4e487b7100000000000000000000000000000000000000000000000000000000600052603260045260246000fd5b6000612e2a82612339565b91507fffffffffffffffffffffffffffffffffffffffffffffffffffffffffffffffff821415612e5d57612e5c612d37565b5b600182019050919050565b7f4552433732314d657461646174613a2055524920717565727920666f72206e6f60008201527f6e6578697374656e7420746f6b656e0000000000000000000000000000000000602082015250565b6000612ec4602f83612289565b9150612ecf82612e68565b604082019050919050565b60006020820190508181036000830152612ef381612eb7565b9050919050565b600081905092915050565b6000612f108261227e565b612f1a8185612efa565b9350612f2a81856020860161229a565b80840191505092915050565b6000612f428285612f05565b9150612f4e8284612f05565b91508190509392505050565b7f4552433732313a206f70657261746f7220717565727920666f72206e6f6e657860008201527f697374656e7420746f6b656e0000000000000000000000000000000000000000602082015250565b6000612fb6602c83612289565b9150612fc182612f5a565b604082019050919050565b60006020820190508181036000830152612fe581612fa9565b9050919050565b7f4552433732313a207472616e73666572206f6620746f6b656e2074686174206960008201527f73206e6f74206f776e0000000000000000000000000000000000000000000000602082015250565b6000613048602983612289565b915061305382612fec565b604082019050919050565b600060208201905081810360008301526130778161303b565b9050919050565b7f4552433732313a207472616e7366657220746f20746865207a65726f2061646460008201527f7265737300000000000000000000000000000000000000000000000000000000602082015250565b60006130da602483612289565b91506130e58261307e565b604082019050919050565b60006020820190508181036000830152613109816130cd565b9050919050565b7f4552433732313a206d696e7420746f20746865207a65726f2061646472657373600082015250565b6000613146602083612289565b915061315182613110565b602082019050919050565b6000602082019050818103600083015261317581613139565b9050919050565b7f4552433732313a20746f6b656e20616c7265616479206d696e74656400000000600082015250565b60006131b2601c83612289565b91506131bd8261317c565b602082019050919050565b600060208201905081810360008301526131e1816131a5565b9050919050565b7f4552433732313a20617070726f766520746f2063616c6c657200000000000000600082015250565b600061321e601983612289565b9150613229826131e8565b602082019050919050565b6000602082019050818103600083015261324d81613211565b9050919050565b7f4552433732313a207472616e7366657220746f206e6f6e20455243373231526560008201527f63656976657220696d706c656d656e7465720000000000000000000000000000602082015250565b60006132b0603283612289565b91506132bb82613254565b604082019050919050565b600060208201905081810360008301526132df816132a3565b9050919050565b7f4e487b7100000000000000000000000000000000000000000000000000000000600052601260045260246000fd5b600061332082612339565b915061332b83612339565b92508261333b5761333a6132e6565b5b828204905092915050565b600061335182612339565b915061335c83612339565b92508261336c5761336b6132e6565b5b828206905092915050565b600081519050919050565b600082825260208201905092915050565b600061339e82613377565b6133a88185613382565b93506133b881856020860161229a565b6133c1816122cd565b840191505092915050565b60006080820190506133e160008301876123ce565b6133ee60208301866123ce565b6133fb60408301856125c4565b818103606083015261340d8184613393565b905095945050505050565b600081519050613427816121ef565b92915050565b600060208284031215613443576134426121b9565b5b600061345184828501613418565b9150509291505056fea264697066735822122026b661556c08db8b281d0afb43fd38de9dc4f195b7714d9d4022c7c00824c5bd64736f6c634300080a0033",
  "immutableReferences": {},
  "source": "// SPDX-License-Identifier: MIT\npragma solidity ^0.8.0;\n\nimport \"@openzeppelin/contracts/token/ERC721/ERC721.sol\";\n\ncontract MFL is ERC721 {\n\tmapping(uint => uint) private prices;\n\tconstructor() ERC721(\"MFL\", \"MFL\") {\n\t\t// ETC\n\t\tprices[2] = 0.01 ether;\n\t\tprices[3] = 0.02 ether;\n\t\tprices[4] = 0.03 ether;\n\n\t\t// LTC\n\t\tprices[5] = 0.04 ether;\n\t\tprices[6] = 0.05 ether;\n\t\tprices[7] = 0.06 ether;\n\n\t\t// BTC\n\t\tprices[8] = 0.07 ether;\n\t\tprices[9] = 0.08 ether;\n\t\tprices[10] = 0.09 ether;\n\t}\n\n\tuint private lastToken = 1000000;\n\tuint private basePrice = 10000000000000000;\n\n\tmapping(uint => uint) private status;\n\tmapping(address => uint[]) private myLands;\n\tmapping(address => mapping(uint => uint)) private ownershipIndex;\n\tmapping(address => uint[]) private myLandStatuses;\n\tmapping(address => mapping(uint => uint)) private ownerLandStatusIndex;\n\n\tfunction getMyLands(address addr) public view returns (uint[] memory) {\n\t\treturn myLands[addr];\n\t}\n\tfunction getMyLandStatuses(address addr) public view returns (uint[] memory) {\n\t\treturn myLandStatuses[addr];\n\t}\n\n\tfunction mintLand(uint tokenId) payable external {\n\t\trequire(msg.value == basePrice, \"Invalid Amount\");\n\t\trequire(tokenId < lastToken, \"Invalid Token Id\");\n\t\t\n\t\t_mint(msg.sender, tokenId);\n\t\t\n\t\tstatus[tokenId] = 1;\n\t\tmyLandStatuses[msg.sender].push(1);\n\t\townerLandStatusIndex[msg.sender][tokenId] = myLandStatuses[msg.sender].length;\n\n\t\tmyLands[msg.sender].push(tokenId);\n\t\townershipIndex[msg.sender][tokenId] = myLands[msg.sender].length;\n\t}\n\tfunction _beforeTokenTransfer(address from, address to, uint256 tokenId) internal virtual override {\n\t\tif (status[tokenId] > 0) {\n\t\t\t// Delete current owner record\n\t\t\tdelete myLands[from][ownershipIndex[from][tokenId] - 1];\n\t\t\tdelete ownershipIndex[from][tokenId];\n\n\t\t\tdelete myLandStatuses[from][ownerLandStatusIndex[from][tokenId] - 1];\n\t\t\tdelete ownerLandStatusIndex[from][tokenId];\n\n\t\t\t// Set new owner record\n\t\t\tmyLands[to].push(tokenId);\n\t\t\townershipIndex[to][tokenId] = myLands[to].length;\n\n\t\t\tmyLandStatuses[to].push(status[tokenId]);\n\t\t\townerLandStatusIndex[to][tokenId] = myLandStatuses[to].length;\n\t\t}\n\t}\n\n\tfunction updateStatus(uint tokenId, uint newStatus) payable external {\n\t\trequire(newStatus >= 2);\n\t\trequire(newStatus <= 10);\n\t\trequire(msg.value == prices[newStatus]);\n\t\trequire(ownerOf(tokenId) == msg.sender);\n\n\t\tstatus[tokenId] = newStatus;\n\t\tmyLandStatuses[msg.sender][ownerLandStatusIndex[msg.sender][tokenId] - 1] = newStatus;\n\t}\n\n\tfunction getStatus(uint start, uint end) public view returns (uint[] memory) {\n\t\trequire(end > start);\n\t\trequire(end <= lastToken);\n\n\t\tuint[] memory arr = new uint[](end - start + 1);\n\t\tuint counter = 0;\n\t\tfor (uint i = start; i <= end; i++) {\n\t\t\tarr[counter] = status[i];\n\t\t\tcounter++;\n\t\t}\n\n\t\treturn arr;\n\t}\n}",
  "sourcePath": "C:\\Users\\debuj\\Desktop\\projects\\game1\\contracts\\contracts\\MFL.sol",
  "compiler": {
    "name": "solc",
    "version": "0.8.10+commit.fc410830.Emscripten.clang"
  },
  "schemaVersion": "3.4.3",
  "updatedAt": "2022-01-07T10:22:09.524Z",
  "networkType": "ethereum",
  "devdoc": {
    "kind": "dev",
    "methods": {
      "approve(address,uint256)": {
        "details": "See {IERC721-approve}."
      },
      "balanceOf(address)": {
        "details": "See {IERC721-balanceOf}."
      },
      "getApproved(uint256)": {
        "details": "See {IERC721-getApproved}."
      },
      "isApprovedForAll(address,address)": {
        "details": "See {IERC721-isApprovedForAll}."
      },
      "name()": {
        "details": "See {IERC721Metadata-name}."
      },
      "ownerOf(uint256)": {
        "details": "See {IERC721-ownerOf}."
      },
      "safeTransferFrom(address,address,uint256)": {
        "details": "See {IERC721-safeTransferFrom}."
      },
      "safeTransferFrom(address,address,uint256,bytes)": {
        "details": "See {IERC721-safeTransferFrom}."
      },
      "setApprovalForAll(address,bool)": {
        "details": "See {IERC721-setApprovalForAll}."
      },
      "supportsInterface(bytes4)": {
        "details": "See {IERC165-supportsInterface}."
      },
      "symbol()": {
        "details": "See {IERC721Metadata-symbol}."
      },
      "tokenURI(uint256)": {
        "details": "See {IERC721Metadata-tokenURI}."
      },
      "transferFrom(address,address,uint256)": {
        "details": "See {IERC721-transferFrom}."
      }
    },
    "version": 1
  },
  "userdoc": {
    "kind": "user",
    "methods": {},
    "version": 1
  }
}